:020000040800F2
:100000000000022009160008BD130008C3130008F1
:10001000C9130008CF130008D51300080000000022
:10002000000000000000000000000000DB130008DA
:10003000E713000800000000F3130008FF13000896
:1000400059160008591600085916000859160008D4
:1000500059160008591600085916000859160008C4
:100060005916000859160008B91600085916000854
:1000700059160008591600085916000859160008A4
:100080005916000859160008591600085916000894
:100090005916000859160008591600085916000884
:1000A0005916000859160008591600085916000874
:1000B0005916000859160008591600085916000864
:1000C0005916000859160008591600085916000854
:1000D0005916000859160008591600085916000844
:1000E0005916000859160008591600085916000834
:1000F0005916000859160008591600085916000824
:100100005916000859160008591600085916000813
:100110005916000859160008591600085916000803
:1001200059160008591600085916000859160008F3
:1001300059160008591600085916000859160008E3
:1001400059160008591600085916000859160008D3
:1001500059160008591600085916000859160008C3
:1001600059160008591600085916000859160008B3
:10017000591600085916000859160008000000001A
:08018000591600085916000889
:1001C00010B5054C237833B9044B13B10448AFF391
:1001D00000800123237010BDB8090020000000003A
:1001E0003091000808B5034B1BB103490348AFF336
:1001F000008008BD00000000BC090020309100080C
:1002000053B94AB9002908BF00281CBF4FF0FF317D
:100210004FF0FF3000F074B9ADF1080C6DE904CE79
:1002200000F006F8DDF804E0DDE9022304B07047D1
:100230002DE9F047089E0D4604468846002B4DD117
:100240008A42944668D9B2FA82F252B101FA02F3B4
:10025000C2F1200120FA01F10CFA02FC41EA030884
:1002600094404FEA1C45210CB8FBF5FE1FFA8CF7B1
:1002700005FB1E8341EA03430EFB07F199420BD9AC
:100280001CEB03030EF1FF3080F01E81994240F217
:100290001B81AEF1020E63445B1AA4B2B3FBF5F00E
:1002A00005FB103344EA034400FB07F7A7420AD9D1
:1002B0001CEB040400F1FF3380F00881A74240F2F8
:1002C000058164440238E41B40EA0E4000211EB15F
:1002D000D4400023C6E90043BDE8F0878B4208D92B
:1002E000002E00F0EE800021C6E900050846BDE8BA
:1002F000F087B3FA83F100294AD1AB4202D382429C
:1003000000F2F980841A65EB030301209846002E61
:10031000E2D0C6E90048DFE702B9FFDEB2FA82F2B6
:10032000002A40F09180A1EB0C054FEA1C471FFA10
:100330008CFE0121B5FBF7F307FB1350250C45EAB2
:1003400000450EFB03F0A84208D91CEB050503F19C
:10035000FF3802D2A84200F2CB8043462D1AA4B245
:10036000B5FBF7F007FB105544EA05440EFB00FE11
:10037000A64508D91CEB040400F1FF3502D2A645BE
:1003800000F2BB802846A4EB0E0440EA03409EE73F
:10039000C1F120078B4022FA07FC4CEA030C20FA3B
:1003A00007F405FA01F31C43FD404FEA1C4900FA2B
:1003B00001F3B5FBF9F8200C1FFA8CFE09FB185568
:1003C00040EA054508FB0EF0A84202FA01F20BD9FB
:1003D0001CEB050508F1FF3A80F08880A84240F246
:1003E0008580A8F1020865442D1AA4B2B5FBF9F086
:1003F00009FB105544EA054500FB0EFEAE4508D941
:100400001CEB050500F1FF346CD2AE456AD9023809
:10041000654440EA0840A0FB0294A5EB0E05A54206
:10042000C846A64656D353D05EB1B3EB080265EB7F
:100430000E0505FA07F722FA01F3CD401F43C6E97E
:1004400000750021BDE8F087C2F1200320FA03F116
:100450000CFA02FC25FA03F395400D434FEA1C47C2
:100460001FFA8CFEB3FBF7F107FB11302B0C43EAAC
:10047000004301FB0EF0984204FA02F408D91CEB89
:10048000030301F1FF382FD298422DD9023963447A
:100490001B1AADB2B3FBF7F007FB103345EA034577
:1004A00000FB0EF3AB4208D91CEB050500F1FF3849
:1004B00016D2AB4214D902386544ED1A40EA014124
:1004C00038E73146304607E78646E5E61846FAE65D
:1004D0004B45A9D2B9EB020864EB0C0E0138A3E737
:1004E0004046EAE7204694E74146D1E7D0467BE71D
:1004F000023B654432E7084609E76444023842E7B4
:10050000704700BF00000000000000000000000075
:1005100001F0FF01102A2BDB10F0070F08D010F8B4
:10052000013B013A8B422DD010F0070F42B3F6D1B8
:10053000F0B441EA012141EA014122F007047FF0D1
:1005400000070023F0E80256083C85EA010586EA28
:10055000010685FA47F5A3FA87F586FA47F6A5FA64
:1005600087F68EB9EED1F0BC01F0FF0102F0070270
:1005700032B110F8013B013A83EA010313B1F8D11B
:100580000020704701387047002D06BF35460338FC
:10059000073815F0010F07D1013015F4807F02BF35
:1005A000013015F4C03F0130F0BC0138704700BF86
:1005B000844641EA000313F003036DD1403A41D36E
:1005C00051F8043B40F8043B51F8043B40F8043B2D
:1005D00051F8043B40F8043B51F8043B40F8043B1D
:1005E00051F8043B40F8043B51F8043B40F8043B0D
:1005F00051F8043B40F8043B51F8043B40F8043BFD
:1006000051F8043B40F8043B51F8043B40F8043BEC
:1006100051F8043B40F8043B51F8043B40F8043BDC
:1006200051F8043B40F8043B51F8043B40F8043BCC
:1006300051F8043B40F8043B51F8043B40F8043BBC
:10064000403ABDD2303211D351F8043B40F8043B5C
:1006500051F8043B40F8043B51F8043B40F8043B9C
:1006600051F8043B40F8043B103AEDD20C3205D36C
:1006700051F8043B40F8043B043AF9D2043208D064
:10068000D2071CBF11F8013B00F8013B01D30B88D6
:1006900003806046704700BF082A13D38B078DD0B4
:1006A00010F003038AD0C3F10403D21ADB071CBF86
:1006B00011F8013B00F8013B80D331F8023B20F8F0
:1006C000023B7BE7043AD9D3013A11F8013B00F829
:1006D000013BF9D20B7803704B7843708B788370B1
:1006E00060467047000000000000000000000000AD
:1006F00000000000000000000000000000000000FA
:1007000090F800F06DE9024520F007016FF0000C51
:1007100010F0070491F820F040F049804FF00004F9
:100720006FF00700D1E9002391F840F000F10800D4
:1007300082FA4CF2A4FA8CF283FA4CF3A2FA8CF30C
:100740004BBBD1E9022382FA4CF200F10800A4FA73
:100750008CF283FA4CF3A2FA8CF3E3B9D1E90423C7
:1007600082FA4CF200F10800A4FA8CF283FA4CF3FE
:10077000A2FA8CF37BB9D1E9062301F1200182FAB8
:100780004CF200F10800A4FA8CF283FA4CF3A2FABE
:100790008CF3002BC6D0002A04BF04301A4612BACC
:1007A000B2FA82F2FDE8024500EBD2007047D1E9CF
:1007B000002304F00305C4F100004FEAC50514F05E
:1007C000040F91F840F00CFA05F562EA05021CBF2F
:1007D00063EA050362464FF00004A9E781F0004197
:1007E00002E000BF83F0004330B54FEA41044FEA16
:1007F000430594EA050F08BF90EA020F1FBF54EAB1
:10080000000C55EA020C7FEA645C7FEA655C00F04C
:10081000E2804FEA5454D4EB5555B8BF6D420CDD1D
:100820002C4480EA020281EA030382EA000083EAA0
:10083000010180EA020281EA0303362D88BF30BD40
:1008400011F0004F4FEA01314FF4801C4CEA113196
:1008500002D0404261EB410113F0004F4FEA0333F5
:100860004CEA133302D0524263EB430394EA050F80
:1008700000F0A780A4F10104D5F1200E0DDB02FAEF
:100880000EFC22FA05F2801841F1000103FA0EF283
:10089000801843FA05F359410EE0A5F120050EF149
:1008A000200E012A03FA0EFC28BF4CF0020C43FA7A
:1008B00005F3C01851EBE37101F0004507D54FF087
:1008C000000EDCF1000C7EEB00006EEB0101B1F5D7
:1008D000801F1BD3B1F5001F0CD349085FEA30001D
:1008E0004FEA3C0C04F101044FEA445212F5800F28
:1008F00080F09A80BCF1004F08BF5FEA500C50F1C5
:10090000000041EB045141EA050130BD5FEA4C0CA7
:10091000404141EB0101013C28BFB1F5801FE9D204
:1009200091F0000F04BF01460020B1FA81F308BF27
:100930002033A3F10B03B3F120020CDA0C3208DDF3
:1009400002F1140CC2F10C0201FA0CF021FA02F1CE
:100950000CE002F11402D8BFC2F1200C01FA02F13E
:1009600020FA0CFCDCBF41EA0C019040E41AA2BF63
:1009700001EB0451294330BD6FEA04041F3C1CDA2B
:100980000C340EDC04F11404C4F1200220FA04F04B
:1009900001FA02F340EA030021FA04F345EA0301F5
:1009A00030BDC4F10C04C4F1200220FA02F001FAB7
:1009B00004F340EA0300294630BD21FA04F0294639
:1009C00030BD94F0000F83F4801306BF81F48011D2
:1009D0000134013D4EE77FEA645C18BF7FEA655C45
:1009E00029D094EA050F08BF90EA020F05D054EA17
:1009F000000C04BF1946104630BD91EA030F1EBF1C
:100A00000021002030BD5FEA545C05D1400049411F
:100A100028BF41F0004130BD14F580043CBF01F512
:100A2000801130BD01F0004545F0FE4141F47001F8
:100A30004FF0000030BD7FEA645C1ABF19461046D3
:100A40007FEA655C1CBF0B46024650EA013406BFD4
:100A500052EA033591EA030F41F4002130BD00BF93
:100A600090F0000F04BF0021704730B54FF4806450
:100A700004F132044FF000054FF0000150E700BFD1
:100A800090F0000F04BF0021704730B54FF4806430
:100A900004F1320410F0004548BF40424FF000011D
:100AA0003EE700BF42004FEAE2014FEA31014FEA60
:100AB00002701FBF12F07F4393F07F4F81F06051AF
:100AC000704732F07F4208BF704793F07F4F04BFFA
:100AD00041F40021704730B54FF4607401F00045D7
:100AE00021F000411CE700BF50EA010208BF704737
:100AF00030B54FF000050AE050EA010208BF704728
:100B000030B511F0004502D5404261EB41014FF490
:100B1000806404F132045FEA915C3FF4D8AE4FF098
:100B200003025FEADC0C18BF03325FEADC0C18BF7B
:100B3000033202EBDC02C2F1200300FA03FC20FACC
:100B400002F001FA03FE40EA0E0021FA02F1144419
:100B5000BDE600BF70B54FF0FF0C4CF4E06C1CEA32
:100B600011541DBF1CEA135594EA0C0F95EA0C0FA3
:100B700000F0DEF82C4481EA030621EA4C5123EA16
:100B80004C5350EA013518BF52EA033541F4801145
:100B900043F4801338D0A0FB02CE4FF00005E1FBF8
:100BA00002E506F00042E0FB03E54FF00006E1FB42
:100BB00003569CF0000F18BF4EF0010EA4F1FF0485
:100BC000B6F5007F64F5407404D25FEA4E0E6D41C5
:100BD00046EB060642EAC62141EA55514FEAC520D6
:100BE00040EA5E504FEACE2EB4F1FD0C88BFBCF552
:100BF000E06F1ED8BEF1004F08BF5FEA500E50F103
:100C0000000041EB045170BD06F0004646EA0101C8
:100C100040EA020081EA0301B4EB5C04C2BFD4EBFA
:100C20000C0541EA045170BD41F480114FF0000EF3
:100C3000013C00F3AB8014F1360FDEBF002001F061
:100C4000004170BDC4F10004203C35DA0C341BDCDB
:100C500004F11404C4F1200500FA05F320FA04F0AD
:100C600001FA05F240EA020001F0004221F00041E1
:100C700010EBD37021FA04F642EB06015EEA430E54
:100C800008BF20EAD37070BDC4F10C04C4F1200584
:100C900000FA04F320FA05F001FA04F240EA020037
:100CA00001F0004110EBD37041F100015EEA430E08
:100CB00008BF20EAD37070BDC4F1200500FA05F228
:100CC0004EEA020E20FA04F301FA05F243EA0203A7
:100CD00021FA04F001F0004121FA04F220EA0200B6
:100CE00000EBD3705EEA430E08BF20EAD37070BDFC
:100CF00094F0000F0FD101F00046400041EB0101DC
:100D000011F4801F08BF013CF7D041EA060195F0BD
:100D1000000F18BF704703F00046520043EB030377
:100D200013F4801F08BF013DF7D043EA0603704764
:100D300094EA0C0F0CEA135518BF95EA0C0F0CD06F
:100D400050EA410618BF52EA4306D1D181EA0301B5
:100D500001F000414FF0000070BD50EA410606BFAF
:100D60001046194652EA430619D094EA0C0F02D1F4
:100D700050EA013613D195EA0C0F05D152EA033639
:100D80001CBF104619460AD181EA030101F0004157
:100D900041F0FE4141F470014FF0000070BD41F0A0
:100DA000FE4141F4780170BD70B54FF0FF0C4CF47A
:100DB000E06C1CEA11541DBF1CEA135594EA0C0F99
:100DC00095EA0C0F00F0A7F8A4EB050481EA030EE6
:100DD00052EA03354FEA013100F088804FEA0333CD
:100DE0004FF0805545EA131343EA12634FEA02229B
:100DF00045EA111545EA10654FEA00260EF000415C
:100E00009D4208BF964244F1FD0404F5407402D2AD
:100E10005B084FEA3202B61A65EB03055B084FEA3E
:100E200032024FF480104FF4002CB6EB020E75EB3B
:100E3000030E22BFB61A754640EA0C005B084FEA63
:100E40003202B6EB020E75EB030E22BFB61A7546E0
:100E500040EA5C005B084FEA3202B6EB020E75EB2B
:100E6000030E22BFB61A754640EA9C005B084FEAA3
:100E70003202B6EB020E75EB030E22BFB61A7546B0
:100E800040EADC0055EA060E18D04FEA051545EA9F
:100E900016754FEA06164FEAC30343EA52734FEA48
:100EA000C2025FEA1C1CC0D111F4801F0BD141EAC1
:100EB00000014FF000004FF0004CB6E711F4801F26
:100EC00004BF01430020B4F1FD0C88BFBCF5E06F06
:100ED0003FF6AFAEB5EB030C04BFB6EB020C5FEA16
:100EE000500C50F1000041EB045170BD0EF0004E6B
:100EF0004EEA113114EB5C04C2BFD4EB0C0541EA9D
:100F0000045170BD41F480114FF0000E013C90E699
:100F100045EA060E8DE60CEA135594EA0C0F08BF5D
:100F200095EA0C0F3FF43BAF94EA0C0F0AD150EA5C
:100F300001347FF434AF95EA0C0F7FF425AF1046EF
:100F400019462CE795EA0C0F06D152EA03353FF417
:100F5000FDAE1046194622E750EA410618BF52EA94
:100F600043067FF4C5AE50EA41047FF40DAF52EA68
:100F700043057FF4EBAE12E74FF0FF3C06E000BF05
:100F80004FF0010C02E000BF4FF0010C4DF804CD12
:100F90004FEA410C7FEA6C5C4FEA430C18BF7FEAD2
:100FA0006C5C1BD001B050EA410C0CBF52EA430C00
:100FB00091EA030F02BF90EA020F0020704710F180
:100FC000000F91EA030F58BF994208BF90422CBF0F
:100FD000D8176FEAE37040F0010070474FEA410C08
:100FE0007FEA6C5C02D150EA013C07D14FEA430C26
:100FF0007FEA6C5CD6D152EA033CD3D05DF8040B97
:10100000704700BF8446104662468C4619466346C8
:1010100000E000BF01B5FFF7B7FF002848BF10F19F
:10102000000F01BD4DF808EDFFF7F4FF0CBF0120E4
:1010300000205DF808FB00BF4DF808EDFFF7EAFF60
:1010400034BF012000205DF808FB00BF4DF808ED1B
:10105000FFF7E0FF94BF012000205DF808FB00BF10
:101060004DF808EDFFF7CEFF94BF012000205DF89A
:1010700008FB00BF4DF808EDFFF7C4FF34BF0120A7
:1010800000205DF808FB00BF4FEA410C7FEA6C5C72
:1010900002D150EA013C0AD14FEA430C7FEA6C5C72
:1010A00002D152EA033C02D14FF0000070474FF0EA
:1010B000010070474FEA410212F5001215D211D516
:1010C0006FF47873B3EB625212D94FEAC12343F045
:1010D000004343EA505311F0004F23FA02F018BFC7
:1010E000404270474FF00000704750EA013005D190
:1010F00011F0004008BF6FF0004070474FF0000053
:10110000704700BF80B485B000AF0023FB60164B72
:101110001B6B154A43F004031363134B1B6B03F063
:101120000403FB60FB680023BB600F4B1B6B0E4A84
:1011300043F0800313630C4B1B6B03F08003BB6015
:10114000BB6800237B60084B1B6B074A43F001031D
:101150001363054B1B6B03F001037B607B6800BFCF
:101160001437BD4680BC70470038024080B500AFE0
:10117000134800F08FF800F0FBFA00F0C5FA00F019
:101180006DFA00F023F8FFF7BDFF00F0CBF9012264
:101190004FF480610B4800F03CFE4FF4FA7000F011
:1011A00055FB00224FF48061064800F032FE4FF4F8
:1011B000FA7000F04BFB044801F0B2FFE7E700BF14
:1011C000DC090020001402404891000880B594B06A
:1011D00000AF07F1200330220021184601F04EFF36
:1011E00007F10C0300221A605A609A60DA601A61F3
:1011F0000023BB60224B1B6C214A43F080531364D5
:101200001F4B1B6C03F08053BB60BB6800237B60EB
:101210001C4B1B681B4A43F480431360194B1B682B
:1012200003F480437B607B6802233B620123FB6203
:1012300010233B630023BB6307F12003184600F033
:1012400031FE0346002B01D000F01EF80F23FB6097
:1012500000233B6100237B610023BB610023FB6112
:1012600007F10C030021184601F094F80346002B07
:1012700001D000F009F800BF5037BD4680BD00BF67
:10128000003802400070004080B400AF72B600BF6A
:10129000FEE7000080B582B000AF7860074A7B6847
:1012A0001360074B1B68986800230222002101F09D
:1012B0004BFF00BF0837BD4680BD00BFD4090020EA
:1012C0000C00002080B586B000AFF860B9607A608D
:1012D000FB68012B02D0FB68022B11D10E4B186862
:1012E0007B689AB24FF0FF33B96801F07EFA03468B
:1012F000FB75FB7D002B01D17B6808E0052306E030
:1013000001F092FE034609221A604FF0FF3318469F
:101310001837BD4680BD00BFD409002080B586B017
:1013200000AFF860B9607A60FB68002B10D10E4BFB
:1013300018684FF0FF330122B96801F0E8FA03465C
:10134000FB75FB7D002B01D1012308E0052306E09E
:1013500001F06AFE034609221A604FF0FF33184677
:101360001837BD4680BD00BFD409002080B582B0CB
:1013700000AF00237B60104B5B6C0F4A43F480434B
:1013800053640D4B5B6C03F480437B607B680023EC
:101390003B60094B1B6C084A43F080531364064BB7
:1013A0001B6C03F080533B603B68052000F03EFB64
:1013B00000BF0837BD4680BD0038024080B400AF92
:1013C000FEE780B400AFFEE780B400AFFEE780B474
:1013D00000AFFEE780B400AFFEE780B400AF00BF0F
:1013E000BD4680BC704780B400AF00BFBD4680BC26
:1013F000704780B400AF00BFBD4680BC704780B569
:1014000000AF00F007FA00BF80BD80B400AF012339
:101410001846BD4680BC704780B582B000AF78608A
:10142000396001F001FE034616221A604FF0FF33C7
:1014300018460837BD4680BD80B582B000AF7860E1
:101440004FF0FF317868FFF7E7FFFEE780B483B025
:1014500000AF78604FF0FF3318460C37BD4680BCB4
:10146000704780B483B000AF786039603B684FF458
:1014700000525A60002318460C37BD4680BC7047A6
:1014800080B483B000AF7860012318460C37BD46A6
:1014900080BC704780B485B000AFF860B9607A60F6
:1014A000002318461437BD4680BC704780B586B00F
:1014B00000AF7860144A154BD31A7B617B693B619E
:1014C000134B1B68002B02D1114B124A1A60104BB0
:1014D0001A687B6813443A699A4207D201F0A4FD66
:1014E00003460C221A604FF0FF3309E0084B1B68DB
:1014F000FB60074B1A687B681344054A1360FB685E
:1015000018461837BD4680BD0000022000040000C8
:10151000D8090020700A002080B400AF00BFBD468B
:1015200080BC704780B500AF114B124A1A60104B57
:101530004FF4E1325A600E4B00229A600C4B0022AD
:10154000DA600B4B00221A61094B0C225A61084BDE
:1015500000229A61064B0022DA61054801F0F8F892
:101560000346002B01D0FFF78FFE00BF80BD00BFF8
:10157000DC0900200010014080B58AB000AF78601F
:1015800007F1140300221A605A609A60DA601A6147
:101590007B681B68194A93422CD100233B61184B8E
:1015A0005B6C174A43F010035364154B5B6C03F0FC
:1015B00010033B613B690023FB60114B1B6B104A1E
:1015C00043F0010313630E4B1B6B03F00103FB603D
:1015D000FB684FF4C0637B610223BB610023FB61A6
:1015E00003233B6207237B6207F114031946054876
:1015F00000F05EFA00BF2837BD4680BD00100140F4
:101600000038024000000240DFF834D00D480E4997
:101610000E4A002302E0D458C4500433C4188C424C
:10162000F9D30B4A0B4C002301E013600432A242B1
:10163000FBD3FFF771FF01F0FDFCFFF797FD70474B
:101640000000022000000020B809002034950008A6
:10165000B80900206C0A0020FEE7000080B586B0C3
:1016600000AF00233B60124B1B6B114A43F0100389
:1016700013630F4B1B6B03F010033B603B6810239D
:101680007B604FF40413BB600123FB603B1D1946D4
:10169000084800F00DFA002202210A2000F0D1F9DA
:1016A0000A2000F0EAF900BF1837BD4680BD00BF30
:1016B000003802400010024080B500AF102000F05A
:1016C000D9FB00BF80BD000080B582B000AF0346EB
:1016D000FB80142000F0BAF8FB88102B0BD11021EE
:1016E000074800F07FFB0346002B04D14FF4007144
:1016F000044800F0A6FB00BF0837BD4680BD00BF10
:10170000001002400014024080B586B000AF0023F4
:101710003B60154B1B6B144A43F020031363124BC1
:101720001B6B03F020033B603B684FF4C063FB601E
:101730000123BB600123FB6000233B613B1D194675
:101740000A4800F0B5F901224FF40071074800F093
:1017500060FB01224FF48061044800F05AFB00BF97
:101760001837BD4680BD00BF00380240001402405B
:1017700080B500AF0E4B1B680D4A43F40073136035
:101780000B4B1B680A4A43F480631360084B1B68C9
:10179000074A43F480731360032000F047F90020E8
:1017A00000F008F8FFF7E2FD0023184680BD00BFF7
:1017B000003C024080B582B000AF7860124B1A68DE
:1017C000124B1B7819464FF47A73B3FBF1F3B2FB5B
:1017D000F3F3184600F05FF90346002B01D0012314
:1017E0000EE07B680F2B0AD8002279684FF0FF309B
:1017F00000F027F9064A7B681360002300E001230C
:1018000018460837BD4680BD0000002008000020B3
:101810000400002080B400AF054B1B781A46054B2E
:101820001B681344034A136000BFBD4680BC704769
:1018300008000020200A002080B400AF024B1B6883
:101840001846BD4680BC7047200A002080B584B091
:1018500000AF7860FFF7F0FFB8607B68FB60FB6863
:10186000B3F1FF3F05D00A4B1B781A46FB681344BF
:10187000FB6000BFFFF7E0FF0246BB68D31AFA68BF
:101880009A42F7D800BF00BF1037BD4680BD00BFE9
:101890000800002080B485B000AF78607B6803F05A
:1018A0000703FB600C4BDB68BB60BA684FF6FF03B5
:1018B0001340BB60FB681A02BB68134343F0BF636D
:1018C00043F40033BB60044ABB68D36000BF1437E5
:1018D000BD4680BC704700BF00ED00E080B400AFA3
:1018E000044BDB681B0A03F007031846BD4680BCA7
:1018F000704700BF00ED00E080B483B000AF034646
:10190000FB7197F90730002B0BDBFB7903F01F020B
:10191000064997F907305B09012000FA02F241F805
:10192000232000BF0C37BD4680BC704700E100E0BB
:1019300080B483B000AF03463960FB7197F907307C
:10194000002B0ADB3B68DAB20C4997F90730120129
:10195000D2B20B4483F800230AE03B68DAB20849AC
:10196000FB7903F00F03043B1201D2B20B441A7649
:1019700000BF0C37BD4680BC704700BF00E100E0EF
:1019800000ED00E080B489B000AFF860B9607A6023
:10199000FB6803F00703FB61FB69C3F10703042B3A
:1019A00028BF0423BB61FB690433062B02D9FB6902
:1019B000033B00E000237B614FF0FF32BB6902FA7A
:1019C00003F3DA43BB681A407B699A404FF0FF315A
:1019D0007B6901FA03F3D9437B680B401343184634
:1019E0002437BD4680BC704780B582B000AF7860B8
:1019F0007B68013BB3F1807F01D301230FE00A4AEA
:101A00007B68013B53600F214FF0FF30FFF790FFE1
:101A1000054B00229A60044B07221A6000231846E7
:101A20000837BD4680BD00BF10E000E080B582B041
:101A300000AF78607868FFF72DFF00BF0837BD461C
:101A400080BD80B586B000AF0346B9607A60FB7395
:101A500000237B61FFF742FF78617A68B968786993
:101A6000FFF790FF024697F90F3011461846FFF72F
:101A70005FFF00BF1837BD4680BD80B582B000AFA4
:101A80000346FB7197F907301846FFF735FF00BF93
:101A90000837BD4680BD80B582B000AF78607868F9
:101AA000FFF7A2FF034618460837BD4680BD000079
:101AB00080B489B000AF7860396000237B61002377
:101AC0003B610023BB610023FB616BE10122FB69E9
:101AD00002FA03F37B613B681B687A6913403B6140
:101AE0003A697B699A4240F05A813B685B6803F02F
:101AF0000303012B05D03B685B6803F00303022B53
:101B000030D17B689B68BB61FB695B00032202FAF2
:101B100003F3DB43BA691340BB613B68DA68FB69D6
:101B20005B0002FA03F3BA691343BB617B68BA69CD
:101B30009A607B685B68BB610122FB6902FA03F370
:101B4000DB43BA691340BB613B685B681B0903F068
:101B50000102FB6902FA03F3BA691343BB617B68B4
:101B6000BA695A603B685B6803F00303032B17D024
:101B70007B68DB68BB61FB695B00032202FA03F34D
:101B8000DB43BA691340BB613B689A68FB695B0041
:101B900002FA03F3BA691343BB617B68BA69DA607E
:101BA0003B685B6803F00303022B23D1FB69DA086F
:101BB0007B68083253F82230BB61FB6903F00703EE
:101BC0009B000F2202FA03F3DB43BA691340BB61A7
:101BD0003B681A69FB6903F007039B0002FA03F3F1
:101BE000BA691343BB61FB69DA087B680832B969DB
:101BF00043F822107B681B68BB61FB695B00032212
:101C000002FA03F3DB43BA691340BB613B685B68CC
:101C100003F00302FB695B0002FA03F3BA691343A2
:101C2000BB617B68BA691A603B685B6803F4403348
:101C3000002B00F0B4800023FB605F4B5B6C5E4ABE
:101C400043F4804353645C4B5B6C03F48043FB6060
:101C5000FB685A4AFB699B08023352F82330BB6188
:101C6000FB6903F003039B000F2202FA03F3DB433B
:101C7000BA691340BB617B68514A93422BD07B68A1
:101C8000504A934225D07B684F4A93421FD07B68CD
:101C90004E4A934219D07B684D4A934213D07B68D9
:101CA0004C4A93420DD07B684B4A934207D07B68E5
:101CB0004A4A934201D107230EE008230CE0062391
:101CC0000AE0052308E0042306E0032304E00223DE
:101CD00002E0012300E00023FA6902F0030292000F
:101CE0009340BA691343BB613449FB699B080233D3
:101CF000BA6941F823203A4B9B68BB613B69DB43DF
:101D0000BA691340BB613B685B6803F48013002B26
:101D100003D0BA693B691343BB61314ABB69936025
:101D20002F4BDB68BB613B69DB43BA691340BB6186
:101D30003B685B6803F40013002B03D0BA693B696E
:101D40001343BB61264ABB69D360254B5B68BB610B
:101D50003B69DB43BA691340BB613B685B6803F4D2
:101D60000033002B03D0BA693B691343BB611C4AA3
:101D7000BB6953601A4B1B68BB613B69DB43BA69A3
:101D80001340BB613B685B6803F48033002B03D0D6
:101D9000BA693B691343BB61114ABB691360FB69B4
:101DA0000133FB61FB690F2B7FF690AE00BF00BFD4
:101DB0002437BD4680BC70470038024000380140DF
:101DC000000002400004024000080240000C0240F3
:101DD000001002400014024000180240001C0240A3
:101DE000003C014080B485B000AF78600B467B803A
:101DF0007B681A697B881340002B02D00123FB7398
:101E000001E00023FB73FB7B18461437BD4680BC02
:101E1000704780B483B000AF78600B467B80134678
:101E20007B707B78002B03D07A887B689A6103E013
:101E30007B881A047B689A6100BF0C37BD4680BC62
:101E4000704780B485B000AF78600B467B807B68BC
:101E50005B69FB607A88FB6813401A04FB68D9430E
:101E60007B880B401A437B689A6100BF1437BD46DC
:101E700080BC704780B582B000AF0346FB80084B42
:101E80005A69FB881340002B06D0054AFB88536132
:101E9000FB881846FFF718FC00BF0837BD4680BD19
:101EA000003C014080B586B000AF78607B68002BB5
:101EB00001D1012367E27B681B6803F00103002B5B
:101EC00075D0884B9B6803F00C03042B0CD0854B1A
:101ED0009B6803F00C03082B12D1824B5B6803F460
:101EE0008003B3F5800F0BD17E4B1B6803F40033E6
:101EF000002B5BD07B685B68002B57D1012342E24B
:101F00007B685B68B3F5803F06D1764B1B68754AEA
:101F100043F4803313601DE07B685B68B3F5A02F4A
:101F20000CD1704B1B686F4A43F4802313606D4BD8
:101F30001B686C4A43F4803313600BE0694B1B68E9
:101F4000684A23F480331360664B1B68654A23F4A8
:101F5000802313607B685B68002B13D0FFF76CFC59
:101F6000386108E0FFF768FC02463B69D31A642B2E
:101F700001D9032307E25B4B1B6803F40033002BFA
:101F8000F0D014E0FFF758FC386108E0FFF754FC8C
:101F900002463B69D31A642B01D90323F3E1514B69
:101FA0001B6803F40033002BF0D100E000BF7B6816
:101FB0001B6803F00203002B63D04A4B9B6803F0BD
:101FC0000C03002B0BD0474B9B6803F00C03082B32
:101FD0001CD1444B5B6803F48003002B16D1414BAA
:101FE0001B6803F00203002B05D07B68DB68012B24
:101FF00001D00123C7E13B4B1B6823F0F8027B684B
:102000001B69DB00374913430B603AE07B68DB68F0
:10201000002B20D0344B01221A60FFF70DFC3861F1
:1020200008E0FFF709FC02463B69D31A022B01D9ED
:102030000323A8E12B4B1B6803F00203002BF0D015
:10204000284B1B6823F0F8027B681B69DB002549DD
:1020500013430B6015E0244B00221A60FFF7ECFBE2
:10206000386108E0FFF7E8FB02463B69D31A022B10
:1020700001D9032387E11B4B1B6803F00203002BEC
:10208000F0D17B681B6803F00803002B36D07B6817
:102090005B69002B16D0154B01221A60FFF7CCFBB1
:1020A000386108E0FFF7C8FB02463B69D31A022BF0
:1020B00001D9032367E10B4B5B6F03F00203002B95
:1020C000F0D01BE0094B00221A60FFF7B5FB386126
:1020D0000EE0FFF7B1FB02463B69D31A022B07D98A
:1020E000032350E10038024000004742800E47427F
:1020F000884B5B6F03F00203002BEAD17B681B68FF
:1021000003F00403002B00F097800023FB75814B44
:102110001B6C03F08053002B0FD10023BB607D4B61
:102120001B6C7C4A43F0805313647A4B1B6C03F0A6
:102130008053BB60BB680123FB75774B1B6803F4BE
:102140008073002B18D1744B1B68734A43F480735F
:102150001360FFF771FB386108E0FFF76DFB024683
:102160003B69D31A022B01D903230CE16A4B1B688C
:1021700003F48073002BF0D07B689B68012B06D1A1
:10218000644B1B6F634A43F0010313671CE07B68D9
:102190009B68052B0CD15F4B1B6F5E4A43F0040319
:1021A00013675C4B1B6F5B4A43F0010313670BE043
:1021B000584B1B6F574A23F001031367554B1B6F96
:1021C000544A23F0040313677B689B68002B15D0E7
:1021D000FFF732FB38610AE0FFF72EFB02463B694E
:1021E000D31A41F28832934201D90323CBE0494B01
:1021F0001B6F03F00203002BEED014E0FFF71CFB73
:1022000038610AE0FFF718FB02463B69D31A41F236
:102210008832934201D90323B5E03E4B1B6F03F094
:102220000203002BEED1FB7D012B05D1394B1B6C3A
:10223000384A23F0805313647B689B69002B00F0BD
:10224000A180344B9B6803F00C03082B5CD07B68A7
:102250009B69022B41D1314B00221A60FFF7ECFA47
:10226000386108E0FFF7E8FA02463B69D31A022B0F
:1022700001D9032387E0274B1B6803F00073002B71
:10228000F0D17B68DA697B681B6A1A437B685B6AFA
:102290009B011A437B689B6A5B08013B1B041A4342
:1022A0007B68DB6A1B061B4913434B601B4B0122F7
:1022B0001A60FFF7C1FA386108E0FFF7BDFA02467D
:1022C0003B69D31A022B01D903235CE0114B1B6835
:1022D00003F00073002BF0D054E0104B00221A6082
:1022E000FFF7AAFA386108E0FFF7A6FA02463B6951
:1022F000D31A022B01D9032345E0064B1B6803F0D8
:102300000073002BF0D13DE07B689B69012B07D166
:10231000012338E00038024000700040600047426E
:102320001B4B5B68FB607B689B69012B28D0FB68BB
:1023300003F480027B68DB699A4221D1FB6803F0D9
:102340003F027B681B6A9A421AD1FA6847F6C0734B
:1023500013407A68526A9201934211D1FB6803F4E8
:1023600040327B689B6A5B08013B1B049A4207D1A1
:10237000FB6803F070627B68DB6A1B069A4201D03F
:10238000012300E0002318461837BD4680BD00BF7A
:102390000038024080B584B000AF786039607B6857
:1023A000002B01D10123CCE0684B1B6803F007032D
:1023B0003A689A420CD9654B3A68D2B21A70634BAC
:1023C0001B6803F007033A689A4201D00123B8E082
:1023D0007B681B6803F00203002B20D07B681B681E
:1023E00003F00403002B05D0594B9B68584A43F473
:1023F000E05393607B681B6803F00803002B05D053
:10240000534B9B68524A43F460439360504B9B6824
:1024100023F0F0027B689B684D4913438B607B6817
:102420001B6803F00103002B44D07B685B68012B21
:1024300007D1474B1B6803F40033002B19D101234C
:102440007FE07B685B68022B03D07B685B68032BB3
:1024500007D13F4B1B6803F00073002B09D1012308
:102460006FE03B4B1B6803F00203002B01D10123FB
:1024700067E0374B9B6823F003027B685B68344955
:1024800013438B60FFF7D8F9F8600AE0FFF7D4F93F
:102490000246FB68D31A41F28832934201D90323E2
:1024A0004FE02B4B9B6803F00C027B685B689B0042
:1024B0009A42EBD1254B1B6803F007033A689A4216
:1024C0000CD2224B3A68D2B21A70204B1B6803F030
:1024D00007033A689A4201D0012332E07B681B6807
:1024E00003F00403002B08D0194B9B6823F4E0523F
:1024F0007B68DB68164913438B607B681B6803F0BD
:102500000803002B09D0124B9B6823F460427B68C0
:102510001B69DB000E4913438B6000F021F8024673
:102520000B4B9B681B0903F00F030A49CB5C22FA93
:1025300003F3094A1360094B1B681846FFF73AF981
:10254000002318461037BD4680BD00BF003C024046
:1025500000380240509100080000002004000020D4
:102560002DE9B04F90B000AF00237B630023FB63E5
:1025700000233B630023BB63594B9B6803F00C03B0
:10258000082B0DD0082B00F2A280002B02D0042BC8
:1025900003D09CE0534BBB639CE0534BBB6399E07F
:1025A0004F4B5B6803F03F037B634D4B5B6803F469
:1025B0008003002B27D04A4B5B689B0900223B62BB
:1025C0007A623B6AC3F308000021474B03FB01F228
:1025D000002300FB03F31344434AA0FB0221F962EA
:1025E000BA62FA6A1344FB627B6B0022BB61FA6138
:1025F000D7E90623D7E90A01FDF702FE02460B469A
:102600001346FB6355E0364B5B689B0900223B6138
:102610007A613B69C3F3080A4FF0000B52465B46F0
:102620004FF000004FF00001590141EAD261500122
:1026300002460B46B2EB0A0863EB0B094FF00002AF
:102640004FF000034FEA891343EA98634FEA881278
:10265000B2EB080463EB09054FF000024FF00003F2
:10266000EB0043EA5473E20014461D4614EB0A03E0
:102670003B6045EB0B037B604FF000024FF0000323
:10268000D7E9004529468B0220462946044643EAFD
:10269000945301468A02104619467B6B0022BB60A8
:1026A000FA60D7E90223FDF7ABFD02460B4613465D
:1026B000FB630B4B5B681B0C03F0030301335B00F4
:1026C0003B63FA6B3B6BB2FBF3F3BB6302E0054B7E
:1026D000BB6300BFBB6B18464037BD46BDE8B08F3B
:1026E000003802400024F40040787D0180B400AF3F
:1026F000024B1B681846BD4680BC70470000002096
:1027000080B500AFFFF7F2FF0246054B9B689B0ABE
:1027100003F007030349CB5C22FA03F3184680BD9C
:10272000003802406091000880B500AFFFF7DEFF7F
:102730000246054B9B685B0B03F007030349CB5C28
:1027400022FA03F3184680BD003802406091000869
:1027500080B582B000AF78607B68002B01D1012387
:102760003FE07B6893F83D30DBB2002B06D17B68FD
:10277000002283F83C207868FEF7FEFE7B68242266
:1027800083F83D207B681B68DA687B681B6822F44D
:102790000052DA60786800F0CBF97B681B681A6930
:1027A0007B681B6822F490421A617B681B685A6937
:1027B0007B681B6822F02A025A617B681B68DA6812
:1027C0007B681B6842F40052DA607B6800221A645E
:1027D0007B68202283F83D207B68202283F83E20FE
:1027E000002318460837BD4680BD80B58AB002AFC9
:1027F000F860B9603B601346FB8000237B61FB6897
:1028000093F83D30DBB2202B7CD1BB68002B02D08B
:10281000FB88002B01D1012375E0FB6893F83C3065
:10282000012B01D102236EE0FB68012283F83C20DA
:10283000FB6800221A64FB68212283F83D20FEF722
:10284000FBFF7861FB68FA889A84FB68FA88DA846F
:10285000FB689B68B3F5805F08D1FB681B69002BA0
:1028600004D10023FB61BB68BB6103E0BB68FB6173
:102870000023BB61FB68002283F83C202AE03B6810
:1028800000937B6900228021F86800F0E2F803469B
:10289000002B01D0032336E0FB69002B0BD1BB6971
:1028A0001B881A46FB681B68C2F308025A60BB69A2
:1028B0000233BB6107E0FB691A78FB681B685A604A
:1028C000FB690133FB61FB68DB8C9BB2013B9AB275
:1028D000FB68DA84FB68DB8C9BB2002BCFD13B68B2
:1028E00000937B6900224021F86800F0B2F80346AB
:1028F000002B01D0032306E0FB68202283F83D2053
:10290000002300E0022318462037BD4680BD80B575
:102910008AB002AFF860B9603B601346FB800023C9
:102920007B61FB6893F83E30DBB2202B40F08C805B
:10293000BB68002B02D0FB88002B01D1012384E06F
:10294000FB6893F83C30012B01D102237DE0FB684A
:10295000012283F83C20FB6800221A64FB682222D3
:1029600083F83E20FB6800221A63FEF765FF78615A
:10297000FB68FA889A85FB68FA88DA85FB689B68A9
:10298000B3F5805F08D1FB681B69002B04D10023DD
:10299000FB61BB68BB6103E0BB68FB610023BB61FB
:1029A000FB68002283F83C2043E03B6800937B698E
:1029B00000222021F86800F04CF80346002B01D0DB
:1029C000032342E0FB69002B0CD1FB681B685B68AA
:1029D0009BB2C3F308039AB2BB691A80BB69023386
:1029E000BB611FE0FB689B68B3F5805F07D0FB68A5
:1029F0009B68002B0AD1FB681B69002B06D1FB6882
:102A00001B685B68DAB2FB691A7008E0FB681B6838
:102A10005B68DBB203F07F03DAB2FB691A70FB6913
:102A20000133FB61FB68DB8D9BB2013B9AB2FB6813
:102A3000DA85FB68DB8D9BB2002BB6D1FB682022C8
:102A400083F83E20002300E0022318462037BD46CD
:102A500080BD80B590B000AFF860B9603B601346B0
:102A6000FB7150E0BB6CB3F1FF3F4CD0BB6C002B53
:102A700007D0FEF7E1FE02463B68D31ABA6C9A42D1
:102A800041D2FB681B680C33BB62BB6A53E8003F52
:102A90007B627B6A23F4D073FB63FB681B680C3397
:102AA000FA6B7A633B63396B7A6B41E80023FB6214
:102AB000FB6A002BE5D1FB681B6814337B617B69E3
:102AC00053E8003F3B613B6923F00103BB63FB68B4
:102AD0001B681433BA6B3A62FB61F9693A6A41E8E0
:102AE0000023BB61BB69002BE5D1FB68202283F882
:102AF0003D20FB68202283F83E20FB68002283F8FB
:102B00003C2003230FE0FB681B681A68BB68134076
:102B1000BA689A420CBF01230023DBB21A46FB7944
:102B20009A429FD0002318464037BD4680BD000022
:102B30002DE9B04FC0B000AFC7F8F400D7F8F430BB
:102B40001B681B6923F44050D7F8F430D968D7F8D4
:102B5000F4301A6840EA01031361D7F8F4309A6838
:102B6000D7F8F4301B691A43D7F8F4305B691A437D
:102B7000D7F8F430DB691343C7F8F830D7F8F430EE
:102B80001B68DB6823F4164121F00C01D7F8F43000
:102B90001A68D7F8F8300B43D360D7F8F4301B68C5
:102BA0005B6923F44070D7F8F4309969D7F8F430B2
:102BB0001A6840EA01035361D7F8F4301A68914B60
:102BC0009A4205D0D7F8F4301A688F4B9A4204D154
:102BD000FFF7AAFDC7F8FC0003E0FFF791FDC7F877
:102BE000FC00D7F8F430DB69B3F5004F40F01081FA
:102BF000D7F8FC300022C7F8E830C7F8EC20D7E956
:102C00003A4522462B469118B9655B41FB65D7E9E9
:102C1000162320462946044612EB04080C4643EBD3
:102C200004094FF000024FF000034FEAC90343EAE2
:102C300058734FEAC80290469946034618EB0303BF
:102C4000C7F8E0300B4649EB0303C7F8E430D7F888
:102C5000F4305B680022C7F8D830C7F8DC20D7E929
:102C600036120B46DB183B65134642EB03037B65CC
:102C7000D7E91423D7E93801FDF7C2FA02460B461B
:102C8000624BA3FB02235B091C01D7F8FC30002236
:102C9000C7F8D030C7F8D420D7E9348942464B462C
:102CA0009118B9645B41FB64D7E91223454612EBE6
:102CB000050A404649460D4643EB050B4FF000021E
:102CC0004FF000034FEACB0343EA5A734FEACA02BC
:102CD00092469B4603461AEB0303C7F8C8300B46DF
:102CE0004BEB0303C7F8CC30D7F8F4305B68002215
:102CF000C7F8C030C7F8C420D7E930120B46DB183C
:102D00003B64134642EB03037B64D7E91023D7E906
:102D10003201FDF775FA02460B4611463B4BA3FB09
:102D200001235B09642202FB03F3CB1ADB0003F1EE
:102D30003202364BA3FB02235B095B0003F4F873FA
:102D40001C44D7F8FC300022C7F8B830C7F8BC20C4
:102D5000D7E92E8942464B469118B9635B41FB6324
:102D6000D7E90E2341465118396349464B417B63ED
:102D70004FF000024FF00003D7E90CAB5946CB00EF
:102D8000554643EA55735146CA0010461946034654
:102D900042469B18C7F8B0304B460A4642EB030345
:102DA000C7F8B430D7F8F4305B680022C7F8A83011
:102DB000C7F8AC20D7E92A120B46DB18BB621346D2
:102DC00042EB0303FB62D7E90A23D7E92C01FDF7A5
:102DD00017FA02460B460D4BA3FB02135B09642155
:102DE00001FB03F3D31ADB003233084AA2FB0323AF
:102DF0005B0903F00702D7F8F4301B6822449A609D
:102E000009E100BF00100140001401401F85EB5193
:102E1000D7F8FC300022C7F8A030C7F8A420D7E9C3
:102E2000288942464B46911839625B417B62D7E95B
:102E3000082341465418CC4643EB0C054FF00002E2
:102E40004FF00003EB0043EA5473E20014461D46C2
:102E5000404649460346E318C7F898300B4645EB11
:102E60000303C7F89C30D7F8F4305B680022C7F83A
:102E70009030C7F894204FF000024FF00003D7E9DC
:102E8000244529468B0020462946044643EA94738C
:102E900001468A00D7E92601FDF7B2F902460B4642
:102EA000604BA3FB02235B091C01D7F8FC30002216
:102EB000C7F88830C7F88C20D7E9228942464B46AC
:102EC0009118B9615B41FB61D7E90623414651186E
:102ED000396149464B417B614FF000024FF00003DE
:102EE000D7E904AB5946CB00554643EA55735146E2
:102EF000CA0010461946034642469B18C7F8803060
:102F00004B460A4642EB0303C7F88430D7F8F43047
:102F10005B680022BB67FA674FF000024FF00003C6
:102F2000D7E91E8949468B00454643EA95734146D9
:102F30008A00D7E92001FDF763F902460B46394BB9
:102F4000A3FB02135B09642101FB03F3D31A1B01EA
:102F50003233344AA2FB03235B0903F0F0031C4421
:102F6000D7F8FC3000223B677A67D7E91C894246D4
:102F70004B469118B9605B41FB60D7E9022341469B
:102F80005118396049464B417B604FF000024FF0C9
:102F90000003D7E900AB5946CB00554643EA5573C9
:102FA0005146CA0010461946034642469B18BB6666
:102FB0004B460A4642EB0303FB66D7F8F4305B68E6
:102FC00000223B667A664FF000024FF00003D7E91B
:102FD000188949468B00454643EA957341468A0065
:102FE000D7E91A01FDF70CF902460B460D4BA3FB7E
:102FF00002135B09642101FB03F3D31A1B01323373
:10300000084AA2FB03235B0903F00F02D7F8F43050
:103010001B6822449A6000BF07F58077BD46BDE873
:10302000B08F00BF1F85EB51014B1868704700BF80
:103030000C00002070B50D4E0D4D761BB61006D05D
:10304000002455F8043B01349847A642F9D1094EB3
:10305000094D761B06F06CF8B61006D0002455F822
:10306000043B01349847A642F9D170BD2895000869
:10307000289500083095000828950008830730B58A
:1030800048D0541E002A3FD0CAB2034601E0013C9A
:103090003AD303F8012B9D07F9D1032C2DD9CDB2DA
:1030A00045EA05250F2C45EA054536D9A4F110025D
:1030B00022F00F0C03F1200EE6444FEA121C03F13C
:1030C000100242E9045542E9025510327245F8D126
:1030D0000CF1010214F00C0F03EB021204F00F0CC0
:1030E00013D0ACF1040323F003030433134442F878
:1030F000045B9342FBD10CF003042CB1CAB21C4414
:1031000003F8012B9C42FBD130BD64461346002CD2
:10311000F4D1F9E703461446BFE71A46A446E0E7B0
:103120000FB400B5074983B004AB086853F8042B0B
:103130008168019300F0E0F803B05DF804EB04B09F
:10314000704700BF0C0000202DE9F043694CD4F813
:10315000008083B004460E4617461D46B8F1000FA6
:1031600003D0D8F83830002B77D0022F05D0012FAC
:1031700000F2AC80002DC0F2A980636EDA0752D550
:103180002146404602F062FF216B41B104F1400349
:10319000994202D0404603F085F800232363B4F936
:1031A0000CC000231CF0800FA361636064D12CF479
:1031B0004A6C2CF0030C022FA4F80CC06AD001ABAF
:1031C0006A462146404603F013FAA3891843A081BA
:1031D000002D2FD0002E2ED0D8F83830002B38D02C
:1031E000009B2660AB42B4F90C301CBF43F4006373
:1031F000A381012F04BF43F00103A3819AB213F00E
:103200000803C4E904652CD0D1075DD56D42A561E2
:10321000656E002315F00105A36027D00025284620
:1032200003B0BDE8F083A3899B05A9D4A06D03F08A
:103230006BF9A5E7009D284603F00AFA0646002828
:1032400047D0A38943F08003A381D8F83830002BFE
:10325000C6D1404602F02EFFC2E7404602F02AFFE8
:1032600083E7A360656E15F00105D7D1930524D5DA
:10327000284603B0BDE8F0832169404603F012F808
:10328000B4F90CC02CF44A6C2CF0030C022FA4F8F7
:103290000CC094D10025002204F14303A260012256
:1032A000C4E904322360636E4CF0020CD807A4F822
:1032B0000CC0DDD41CF4007FDAD1A06D03F026F938
:1032C000284603B0BDE8F083A560CBE74FF0FF359B
:1032D000CEE7DDF80090A94504D0484603F0B8F9E0
:1032E000064620B9B4F90CC04FF0FF35D3E74D4680
:1032F000A7E700BF0C0000202DE9F04FD5B01C4619
:10330000079191460546099003F0F6F80268179276
:1033100010460E94FDF7F4F916901DB1AB6B002B1F
:1033200000F02A82079A536EDD0740F13881B2F926
:103330000C2091B28F0409D4079B42F400529A8169
:1033400091B21A465B6E23F4005353660E0740F1A8
:10335000CB80079B1B69002B00F0C68001F01A038D
:103360000A2B00F0CF8000242BAB4D46CDE9294439
:10337000CDE91944CDE91B4412942893984618943A
:1033800000230B940024CDE914342B78002B00F09B
:103390009D81AA4604E01AF8013F002B00F0C78087
:1033A000252BF8D1BAEB050640F0C5809AF800301D
:1033B000002B00F08B8100234FF0FF329AF8016060
:1033C0008DF883300A930AF1010A08921F462B24D4
:1033D0004FF020090AF1010AA6F120035A2B00F24E
:1033E000ED80DFE813F0EB02EB00EB00E602EB0010
:1033F000EB00EB006A00EB00EB005C028002EB00EC
:1034000067028A02EB0085025B005B005B005B00E9
:103410005B005B005B005B005B00EB00EB00EB0024
:10342000EB00EB00EB00EB007A01EB00F801D201BE
:103430007A017A017A01EB00EB00EB00EB00E1028C
:10344000EB00EB002D02EB00EB00EB000202EB00C7
:10345000A402EB00EB008307EB00EB00EB00EB00BA
:10346000EB00EB00EB00EB007A01EB00F801D4017C
:103470007A017A017A01C702D401CD01EB00D402AE
:10348000EB006C022F02B502CD01EB0002027E00C0
:103490008007EB00EB006107EB007E00A6F1300334
:1034A00000221AF8016B02EB820203EB4202A6F142
:1034B0003003092BF5D90A928EE7DDF824B058467F
:1034C00003F01AF843681B931846FDF719F91C908E
:1034D0000646584603F010F883681993002E40F012
:1034E000CD869AF8006075E7079D0998294601F096
:1034F000ADFC002841F01C83A98901F01A030A2BB6
:103500007FF431AF079AB2F90E30002BFFF62BAFE4
:10351000536ED80702D4890541F13B810799099878
:1035200023464A4655B0BDE8F04F01F04FBCBAEB18
:10353000050600F0CB802A9B33442A93299B013354
:10354000072BC8E90056299305DC08F108080B9BF6
:1035500033440B932AE70799099828AA03F0E4FF5C
:1035600080B90DF1AC08F2E70799099828AA03F091
:10357000DBFF002800F09B800D9B1BB109981946CA
:1035800002F090FE079A536ED90740F1EA809389C2
:103590005B0601F1D9820B9855B0BDE8F08F079B0F
:1035A000B3F90C20900591B23FF5C4AE1D46986D5D
:1035B00002F0AAFFB5F90C2091B2BBE6002E00F094
:1035C000858000228DF8EC608DF883200123CDE901
:1035D0000C32069308920F92139210923BAD17F0A3
:1035E000020302D006990231069117F0840B07D12D
:1035F0000A990698A1EB0009B9F1000F00F3708356
:103600002A9C8AB1299A0DF1830101320134C8F84C
:103610000010072A4FF001012A942992C8F80410DB
:1036200000F3B68308F1080883B1299B21AA01336E
:103630000234C8F80020072B4FF002022A94299385
:10364000C8F8042000F3B28308F10808BBF1800F2A
:1036500000F06982089B0C9AA3EB020BBBF1000FF0
:1036600000F3AA82FB0500F100820C9BC8F804302D
:103670001C44299BC8F800500133072B2A94299336
:1036800000F3228308F10808780705D50A9B069AFB
:103690009D1A002D00F39683DDE90A2306998A42DC
:1036A000ACBF9B185B180B93002C7FF45DAF00231D
:1036B00029930D9B1BB10D99099802F0F3FD0DF1B3
:1036C000AC0855462B78002B7FF463AE2A9B002B69
:1036D00041F0D3810023299354E70E9B073323F055
:1036E0000702F2E80234CDE91434DDE9143424F0A1
:1036F00000440E92994618462146B54B4FF0FF32D2
:10370000FDF7C2FC002840F0EF84B14B484621464B
:103710004FF0FF32FDF79AFC002840F0E584DDE928
:10372000140100220023FDF787FC002840F0678782
:103730009DF88320A74DA84B27F080070321472E33
:10374000C8BF1D4600230D9306910C9108930F935B
:1037500013931093002A3FF442AF069B0133069364
:103760003DE7079B9B899A053FF512AF079CA06D2B
:1037700002F0CCFEA3890BE7099802F09BFCD1E58F
:103780009AF8006047F0200724E647F01007BA06D1
:103790000E9B40F13B84073323F007031A465B6816
:1037A00052F8084B0E929946002BC0F24C84089BAD
:1037B000013300F0D88254EA090327F0800B40F06F
:1037C000D382089B002B40F0D4825F4600230893ED
:1037D0000C9354AD1DE10E9B002253F8041B8DF891
:1037E00083208DF8EC100E93F0E60E9C089B54F8A5
:1037F000045B4FF000098DF88390002D00F0938555
:103800005A1C00F051861A4649462846FCF780FEAD
:103810000D90002801F00E810D9BCDF820905B1BD0
:103820000C930E9423EAE3739DF883200693CDF85E
:103830003490CDF83C90CDF84C90CDF8409089E78D
:1038400047F0100717F0200900F0D2830E9B0733D2
:1038500023F00703D3F8049053F8084B0E9327F492
:10386000806B002300228DF88320089A511C00F001
:10387000B88054EA09012BF0800740F0B180002A9B
:1038800040F0F685002BA1D11BF001030C9300F052
:10389000148430238DF84F310DF24F15B9E00E9B93
:1038A00053F8042B0A92002A80F2DA830A9A0E93C4
:1038B00052420A929AF8006047F004078AE5BD0672
:1038C00000F1D184FC0600F1D885780600F1A586C8
:1038D000B90540F1D2850E9B0B9953F8042B0E933A
:1038E00011705546EEE69AF800608DF8834071E558
:1038F0009AF8006047F080076CE5524612F8016BB9
:103900002A2E01F03F82A6F13003092B924698BF80
:10391000002201F2BC801AF8016B02EB820203EB79
:103920004202A6F13003092BF5D9089254E547F07D
:10393000100B1BF0200900F076830E9B073323F059
:103940000703D3F8049053F8084B0E93012389E73B
:103950000E9B53F8044B0E93302378268DF8843059
:103960001E4B189347F0020B8DF885604FF000094D
:10397000022377E79AF80060682E03BF9AF8016087
:1039800047F400770AF1010A47F0400722E59AF868
:1039900000606C2E03BF9AF8016047F020070AF11F
:1039A000010A47F0100715E59AF8006047F008078C
:1039B00010E59AF8006047F001070BE59DF88330A9
:1039C000002B7FF48EAD9AF800608DF8839001E5AE
:1039D000FFFFEF7F6C910008709100087C91000858
:1039E000BB46012B00F0C081022B54AD20D1189AA8
:1039F00004F00F032409D35C05F8013D44EA09747F
:103A00004FEA191954EA0903F2D154AB5B1B5F4624
:103A10000C9308990C989DF8832081424FF0000385
:103A2000B8BF01460D9306910F931393109391E63F
:103A300004F00703E40844EA49744FEAD909303333
:103A400054EA09012A4605F8013DF1D11BF0010FA6
:103A5000DBD0302BD9D03023023A05F8013C54ABEF
:103A60009B1A5F460C931546D3E7652E40F3E6801C
:103A7000DDE9140100220023FDF7D4FA002800F04C
:103A8000DC81299BBF4AC8F80020013301340122A0
:103A9000072B2A942993C8F8042000F3CC8408F15A
:103AA0000808229B129A934280F2D682169B179A9C
:103AB0001C44C8E90023299B2A940133072B29932E
:103AC00000F3248408F10808129B5D1E002D7FF787
:103AD000DBAD102D299BDFF8B09240F3BD84494641
:103AE0002246B946DDF824B0079C10260F4605E0B3
:103AF00008F10808103D102D40F3AA84013310325C
:103B0000072BC8E90076CDE92932F1DD28AA214644
:103B1000584603F009FD00287FF42EADDDE9293277
:103B20000DF1AC08E6E70A9B069AA3EB020BBBF18A
:103B3000000F7FF78FADBBF1100F299ADFF8489285
:103B40002CDD1D9621464E46079CDDF8249010235F
:103B500006E0ABF1100BBBF1100F08F108081ADDFD
:103B600001321031072AC8E90063CDE92921F0DDCF
:103B700028AA214648460DF1AC0803F0D5FC0028E0
:103B80007FF4FAACABF1100BBBF1100FDDE929218A
:103B90004FF01003E4DCB1461D9E0C4601325C443C
:103BA000072ACDE92924C8F80090C8F804B000F32A
:103BB000A08308F108084DE5BBF1100F299ADFF842
:103BC000C8912DDD41462046A8464C46079DDDF8AC
:103BD0002490102306E0ABF1100BBBF1100F01F1A4
:103BE000080119DD01321030072AC1E90043CDE98F
:103BF0002920F0DD28AA2946484603F095FC002834
:103C00007FF4BAACABF1100BBBF1100FDDE929204A
:103C10002BA94FF01003E5DC4546A1468846044633
:103C200001325C44072ACDE92924C8F80090C8F87D
:103C300004B000F3D08108F1080813E5129B012BB2
:103C400040F38081299EC8F80050013601340123D9
:103C5000072E2A942996C8F8043000F37C8308F1D3
:103C60000808169B179A01361C44072EC8E9002342
:103C7000CDE9296400F37C8308F10808DDE914012B
:103C800000220023FDF7CEF9002840F07881129B36
:103C90000136013B01351C44072EC8F80050299617
:103CA000C8F804302A9400F35D8108F108081A9BD3
:103CB000C8F8043001361C44072E24ABCDE9296432
:103CC000C8F800307FF7DEAC0799099828AA03F0FE
:103CD0002BFC00287FF450AC2A9C0DF1AC08D3E4F7
:103CE000B9F1100FDDE929212BDDCDE91D3B1F9630
:103CF000DDF824B04E461024A946079D04E0103E8E
:103D0000102E08F1080817DD0132204B1031072A68
:103D1000C8E90034CDE92921F1DD28AA2946584611
:103D20000DF1AC0803F000FC00287FF425AC103E38
:103D3000102EDDE92921E7DCDDE91D3B4D46B146CA
:103D40001F9EC8F80490013209EB0104072A0F49AD
:103D5000C8F80010CDE9292400F351839DF8832091
:103D600008F108084DE4BB460A2C79F1000380F005
:103D70000C83303401238DF84F415F460C930DF2D4
:103D80004F1546E6AC910008C0910008B0910008BC
:103D9000079909981D9328AA03F0C6FB00287FF411
:103DA000EBAB2A9C1D9B0DF1AC083DE407990998EB
:103DB00028AA03F0B9FB00287FF4DEAB2A9C0DF1A2
:103DC000AC0843E4102D299B21DD099FDDF81C90F0
:103DD000102604E0103D102D08F1080817DD01330E
:103DE000BB4A1034072BC8E90026CDE92934F1DDA0
:103DF00028AA494638460DF1AC0803F095FB002887
:103E00007FF4BAAB103D102DDDE92934E7DC013336
:103E1000AF4AC8F804502C44072BCDE92934C8F820
:103E200000207FF739AC0799099828AA03F07CFB9A
:103E300000287FF4A1AB2A9C2EE42299002940F3AC
:103E40001481DDF84090129B9945A8BF9946B9F1BD
:103E5000000F0BDD299B01334C44072BC8E90059A7
:103E60002A94299300F39A8508F10808109EB9F165
:103E7000000FA8BFA6EB0906002E00F34683DDF86D
:103E800040B07905AB4400F1CE84229B129A934254
:103E900002DBFA0740F1B883169A17991444C8E96F
:103EA0000012299A2A940132072A299200F3838565
:103EB00008F10808129AAE18A6EB0B06D51AAE4206
:103EC000A8BF2E46002E0DDD299BC8F800B0013397
:103ED0003444072BC8F804602A94299300F3F18531
:103EE00008F10808002EA8BFAD1B002D7FF7CCAB52
:103EF000102D299BDFF8DC9140F3AE824946224623
:103F0000B946DDF824B0079C10260F4605E008F1FD
:103F10000808103D102D40F39B8201331032072B0F
:103F2000C8E90076CDE92932F1DD28AA21465846B4
:103F300003F0FAFA00287FF41FABDDE929320DF116
:103F4000AC08E6E7FE073FF57DAE299EC8F80050B5
:103F5000013601340123072E2A942996C8F804302B
:103F60007FF7A3AE0799099828AA03F0DDFA002885
:103F70007FF402ABDDE929640DF1AC0897E6129BF2
:103F80005D1E002D7FF793AE102DDFF8489140F3B2
:103F90007F8222460897099C079F4FF0100B05E08F
:103FA00008F10808103D102D40F3708201361032E0
:103FB000072EC8E9009BCDE92962F1DD28AA394620
:103FC000204603F0B1FA00287FF4D6AADDE9296281
:103FD0000DF1AC08E6E70799099828AA03F0A4FABE
:103FE00000287FF4C9AA2A9C0DF1AC08FFF73ABB60
:103FF00017F0100372D117F0400200F0BD820E9A44
:1040000052F8044B0E929946A4B228E453F8044B9C
:104010000E93FB0656D47D0651D544F3C0394B466A
:1040200024B2FFF7C1BB1BF0100340F036811BF038
:10403000400200F092820E9A52F8044B0E9299467A
:10404000A4B201230EE42D2364428DF8833069EB82
:104050004909BB46012308E4F8077FF515AB25E5C0
:104060009AF800600E93FFF7B5B9299B1A4AC8F871
:104070000020013301340122072B2A942993C8F828
:10408000042000F3708408F10808002940F01E8223
:10409000129A07F0010313433FF4F6AA169B1799EF
:1040A000E218C8E90013299B2A920133072B2993B0
:1040B00000F3618308F1080819E254ADA9E4B805DA
:1040C00000F1B4824FEAE4794B46FFF76DBB00BFC5
:1040D000B0910008C0910008AC9100080E9B53F805
:1040E000044B0E93FFF7BBBBDDE9140102460B4600
:1040F000FCF7CAFF002840F0A085612E00F0508533
:10410000412E00F09982089B013326F0200306938C
:1041100000F08F85472B00F07985DDE9141247F414
:1041200080730F931346002BC0F2ED850C93002390
:104130001D938B460D93069B462B00F04A84452B1E
:1041400000F04F850899019126A9049123A90391B4
:1041500022A9029102210C9B099800915A4600F075
:1041600083FF069B472B054640F01C8617F0010F86
:10417000B9460F9F40F0D984269B5B1B1293069B88
:10418000472B00F01883069B462B00F05F84229B90
:104190001093109B069A013B412A229300F0AA85B6
:1041A000F2B20021002BB8BF109B8DF89020BABF4F
:1041B000C3F101032D222B22092B8DF8912040F30E
:1041C00063850DF19F04BD4F2246104687FB0321F6
:1041D000DA17C2EBA10202EB8201A3EB41013031FD
:1041E00000F8011C19466329134600F1FF32ECDC8C
:1041F0003033D9B2831E9C4202F8011C40F2CE85B6
:1042000013460DF1920201E013F8011B02F8011BA5
:104210009C42F9D10DF1A1030DF192021B1A134436
:1042200024AA9B1A1A93129B1A9A012B1A440C92D5
:1042300040F372850C9B169A13440C930C9A00233E
:1042400029F4806722EAE27247F480770F9306929E
:10425000139310931D9B002B40F0DE829DF883206A
:104260000893FFF777BA0E9B0B9853F8041B0E9335
:10427000C217C1E900025546FFF724BA199B002B6B
:104280003FF42FA9199B1B78002B3FF42AA99AF819
:10429000006047F48067FFF79DB80E9B53F8044B0E
:1042A0000E930123FFF7DEBA854B189317F0200910
:1042B00049D00E9B073323F00703D3F8049053F83B
:1042C000084B0E93F80709D554EA090306D03023AA
:1042D0008DF8856047F002078DF8843027F4806BF5
:1042E0000223FFF7BFBABB46FFF723BB754B1893FA
:1042F000DCE70799099828AA03F016F900287FF44B
:104300003BA92A9C0DF1AC08FFF7A4B907990998BD
:1043100028AA03F009F900287FF42EA92A9C0DF1A0
:10432000AC08FFF7D1BB062B294628BF062308950A
:104330000D952A460693644D0E940C930F9113919C
:104340001091FFF707BA17F0100369D00E9B53F8CE
:10435000044B0E93B6E70799099828AA03F0E4F8EE
:1043600000287FF409A9DDE929640DF1AC0878E49F
:104370000799099828AA03F0D7F800287FF4FCA829
:10438000DDE929640DF1AC0878E40BF480630022C8
:10439000CDE90CA80696DDF8648054AF16469A461F
:1043A0000CE00023204649460A22FBF729FF0A2C8D
:1043B00079F100031BD3044689462F4620460A2282
:1043C00000234946FBF71CFF30327D1E013607F8FB
:1043D000012CBAF1000FE4D098F800309E42E0D1F1
:1043E000FF2EDED00A2C79F1000380F0F480CDF8A6
:1043F00064801296DDE90CA8069EFFF706BB0799BC
:1044000009981D9328AA03F08FF800287FF4B4A818
:104410009DF883202A9C1D9B0DF1AC08FFF7F1B895
:1044200017F0400200F0B6800E9A52F8044B0E923C
:104430009946A4B246E70799099828AA03F074F8A8
:1044400000287FF499A82A9C0DF1AC08FFF729BB3E
:1044500014463A464F46914601332C44072BC8F880
:104460000090C8F80450CDE929347FF70BA92BE45C
:10447000012BBB467FF4B8AA7BE40E9B0B9953F843
:10448000042B554611600E93FFF71CB9089F144684
:1044900001362C44072ECDE92964C8F80090C8F8ED
:1044A00004507FF702AC5DE52846CDF820900E94CD
:1044B000FCF726F903460C90FFF7B4B96766666609
:1044C0007C91000890910008A4910008169B179811
:1044D000E218C8E90003299B2A920133072B29938C
:1044E00000F3498108F108080029C0F2FA82129904
:1044F000C8F8005001338C18072BCDE92934C8F8CF
:1045000004107FF7BFA8FFF7DFBB102E299BDFF851
:10451000C09252DD484642462146A846B946099C0B
:10452000079D4FF0100B074603E00832103E102E97
:104530003DDD01331031072BC2E9007BCDE9293184
:10454000F3DD28AA2946204602F0EEFF00287FF47A
:1045500013A8DDE929312BAAE8E70E9B1BF40079AB
:1045600014BF53F8044B53F8044B0E931CBF9146F1
:10457000E4B20123FFF776B90E9B17F4007914BF5C
:1045800053F8044B53F8044B0E931CBF9146E4B20E
:10459000FFF765B90E9B17F4007914BF53F8044B6D
:1045A00053F8044B0E931CBF9146E4B28AE645468D
:1045B00090463A460C464F46914601333444072B09
:1045C000CDE92934C8F80090C8F8046000F3E6800B
:1045D00008F1080853E41C9B1B99ED1A1A4628465B
:1045E00002F034FF98F801300BB108F101082046C1
:1045F00049460A2200230026FBF702FEDBE62D22B5
:104600008DF88320FFF796B8129AAE18A6EB0B062A
:10461000D51AAE42A8BF2E4664E40E9B0B9953F800
:10462000042B0E9311805546FFF74CB844F3C01984
:104630004B4664B2FFF7B8B830238DF88430582366
:104640008DF88530089B632B47F0020400F39B82B2
:1046500000230D933BADDDE9141247F481730F93F2
:104660001346002B2746C0F220820C9326F020032D
:10467000069300238B461D93612E00F0ED82412EA0
:104680007FF459AD22AA0C99584602F04FFE002241
:104690004FF07F53FCF75EFA02460B46CDE910233C
:1046A00000220023FCF7BEFC08B101232293494BF2
:1046B0000C93089BCDE912A6CDE91E78DDF830A059
:1046C000DDE9106703F1FF39AB46109506E00022E3
:1046D000002309F1FF39FCF7A5FCE8B93E4B0022A5
:1046E00030463946FCF736FA0F460646FCF7E2FC40
:1046F0000446FCF7C5F90B46024639463046FCF73E
:1047000071F81AF80430B9F1FF3FD8464D460BF85E
:10471000013B06460F46DAD1304639462F4BDDF8CD
:1047200048A0139ECDF848800022A946DDF87C8081
:10473000109D1E9FCDE91001FCF79CFC002840F065
:104740003482DDE91001254B0022FCF76BFC10B12F
:10475000E10700F12A824B46002B06DB01335B4464
:1047600030220BF8012B5B45FBD1ABEB0503B946BF
:1047700012930F9F03E50799099828AA02F0D4FE27
:1047800000287EF4F9AEDDE9293222990DF1AC085A
:10479000AAE6906D01F0BAFEFEF7C0BE079909982F
:1047A00028AA02F0C1FE00287EF4E6AE2A9C0DF194
:1047B000AC08FFF764BB229B1093DA1C02DB089A5B
:1047C00093420DDD023E26F020030693E1E400BF94
:1047D000C091000890910008000030400000E03FC8
:1047E000109B129A9342C0F2568119F0010F00F00B
:1047F0008782169A13440C9319F4806F03D0109B90
:10480000002B00F350820C9B23EAE3730693672688
:1048100000230F9313931DE52D2200238DF8832091
:104820000893FEF79ABF129BCDF830A04246DDF800
:104830004C801097EB1808935E46199FDDF8709036
:10484000DDF824A0DDF81CB00F9B13952146B8F1CC
:10485000000F2ED0002B6BD1013F08F1FF381B9BBE
:10486000C2E90039299B01334944072B2A91299336
:1048700062DC0832089B38789B1B8342A8BF034642
:10488000002B1C460ADD2998013019440728C2E98B
:1048900000632A9129905ADC38780832002CACBF8A
:1048A000051B0546002D15DC06440F9BB8F1000FD3
:1048B000D0D1002B3CD1DDE91235EB189E4219977F
:1048C000B346DDF830A0109F90460C4628BF9B46AB
:1048D000FFF7DBBA102D29981DDD102404E0103DF0
:1048E000102D02F1080216DD0130AC4B1031072803
:1048F000C2E90034CDE92901F1DD28AA5946504624
:1049000002F012FE00287EF437AE103D102DDDE9D6
:1049100029012BAAE8DC0130A04B55602944072867
:10492000CDE9290113602CDC387808320644BCE755
:104930000F9B013B0F9392E728AA5946504602F07D
:10494000F3FD00287EF418AE2A992BAA92E728AA34
:104950005946504602F0E8FD00287EF40DAE387846
:104960002A992BAA9AE70799099828AA02F0DCFD50
:1049700000287EF401AE22992A9C0DF1AC08FFF7C5
:1049800084BB28AA5946504602F0CEFD00287EF48A
:10499000F3AD38782A992BAA064486E70799099837
:1049A00028AA02F0C1FD00287EF4E6AD2A9C0DF194
:1049B000AC08FFF75BBA0799099828AA02F0B4FD82
:1049C00000287EF4D9AD229B2A9C0DF1AC08FFF79C
:1049D00071BA0899019126A9049123A9039122A9EA
:1049E000029103210C9B099800915A4600F03CFB70
:1049F0000378302B054600F09581229B089AB94632
:104A000013440F9FEC180C99584600220023FCF722
:104A100009FB10B12346FFF7B0BB269BA342BFF4AE
:104A2000ACAB30215A1C26921970269B9C42F9D8B7
:104A3000FFF7A3BB089B9DF883200E9406930C936D
:104A400008900F9013901090FEF784BE229A109257
:104A5000002A40F38181089909F001030B4340F0DB
:104A60005581109B0C93662619F4806F40F01C81D1
:104A70000C9B23EAE3730693CAE60799099828AAD0
:104A800002F052FD00283EF425AEFEF77BBD002368
:104A90000893FEF7A1BC129B169A9A18109B0C92D1
:104AA000002B40F34D816726DEE726F020030693B6
:104AB000DDE914349B4604F100430C932D231D9330
:104AC000DAE50799099828AA02F02EFD00287EF45D
:104AD00053AD229D129B2A9C5D1B0DF1AC08FFF784
:104AE00001BA4E421031DFF8B49034DA4146DDF8B5
:104AF00024B0A8461024079D03E00831103E102E74
:104B000027DD01331032072BC1E90094CDE92932AA
:104B1000F3DD28AA2946584602F006FD00287EF457
:104B20002BADDDE929322BA9E8E7089BEC186AE7F1
:104B3000079B5B6EDD0707D4079B9B899C0503D40D
:104B4000079B986D01F0E2FC4FF0FF330B93FEF7EB
:104B500022BD4546884601333244072BCDE9293230
:104B6000C8F80090C8F804607FF7A4AA07990998CC
:104B700028AA02F0D9FC00287EF4FEACDDE9293237
:104B80000DF1AC08B3E40998591C01F069FD054624
:104B9000002800F00D810D905DE500BFC091000878
:104BA00030238DF8843078234AE5129B26930C9BA2
:104BB0001BF8012CD97B8A425B4609D1302003F8CF
:104BC000010C269B5A1E269213F8012C9142F6D016
:104BD000392A0BBF0C9A0132927AD2B203F8012C17
:104BE000C3E508990C9B09984C1C26A9049123A99C
:104BF000039122A9029102215A460194009100F0EA
:104C000033FA0546B9462C440F9FFCE6089B002B5F
:104C100008BF0123089347F480730F93159B002B63
:104C2000C0F2AE80DDF850B01D900C930D90FFF7F0
:104C300089BA06230893FFF770BA159B604D002BC5
:104C4000B4BF2D229DF883205E4BB8BF8DF8832022
:104C500027F08007FEF772BD22AA0C99584602F091
:104C600065FB00224FF07F53FBF774FF02460B46B3
:104C7000CDE9102300220023FCF7D4F908B1012369
:104C80002293514B0C9314E5002962D130228DF808
:104C900092200DF19302303302F8013B24ABD31A7A
:104CA0001A93FFF7C0BA672619990B78FF2B7BD0B0
:104CB0000024109A204603E001300131FF2B08D078
:104CC000934206DAD21A4B78002BF5D10B780134D7
:104CD000F4E71991109213900F940F9A139B1C995B
:104CE00013440C9A01FB03230C9323EAE37306930A
:104CF000FFF7B0BA06F10F02D2B20121FFF752BAA4
:104D0000109B0C9378E500230D93D1E6169BD318E6
:104D100019440C916626A7E619F0010F3FF48EAAFC
:104D2000FFF788BA0C99584600220023FCF77AF95D
:104D300000287FF462AE089BC3F1010322935DE675
:104D4000C3F101031A4422EAE2730C920693672628
:104D50005EE50DF192029EE7089A09F0010959EA11
:104D6000020304D10123069366260C9350E5169B9B
:104D700001331A4422EAE2730C920693662647E551
:104D80000D9095E60E9B9AF80160924653F8042B1D
:104D90000E9342EAE2720892FEF71CBB02231A93BA
:104DA000FFF741BA089C2DE700230F93139394E774
:104DB000079A938943F040039381FEF7E3BB00BF5A
:104DC00074910008789100087C910008F0B51F46A6
:104DD0008B89ADF26C4D23F00203ADF80C304B6EB5
:104DE0001993CB89ADF80E30CB6907934B6A0993C1
:104DF0001AAB009304934FF4806315460646029362
:104E0000059316A800230C46069301F079FB2A4669
:104E10003B4669463046FEF76FFA051E07DB6946DA
:104E2000304601F013F9002818BF4FF0FF35BDF8E8
:104E30000C305B0603D5A38943F04003A381169889
:104E400001F060FB28460DF26C4DF0BD38B5334BD8
:104E50001B6805460C460BB19A6B12B3B4F90C30C3
:104E600018079AB225D5216900292DD012F001002A
:104E700007D00020A06060694042A06139B10020E5
:104E800038BD950758BF6069A0600029F7D11206A8
:104E900058BF0846F4D543F04003A3814FF0FF30DC
:104EA00038BD184601F006F9B4F90C3018079AB26B
:104EB000D9D4D1062AD5520714D4216943F0080366
:104EC000A3819AB20029D1D102F42070B0F5007FFD
:104ED000CCD02146284601F01BFBB4F90C302169E7
:104EE0009AB2C3E7216B51B104F14002914204D060
:104EF000284601F0D7F9B4F90C3000222263216969
:104F00000022C4E9001223F02403D7E7092243F06A
:104F100040032A604FF0FF30A38138BD0C00002011
:104F2000024B13B1024800F005B8704700000000C2
:104F3000D9610008002301461A46184603F024BA36
:104F40002DE9F04F03690C69A34283B0C0F286805B
:104F5000013C01F11405A30000F11408009355F879
:104F6000243058F8242001338A469A4208EB840101
:104F7000814605EB84070191B2FBF3F638D3002399
:104F8000AE4640469B465EF8041B02681FFA81FC51
:104F900006FB0C33090C4FEA134C06FB01CC99B20B
:104FA000ABEB01011FFA8CF311FA82F1C3EB124251
:104FB00002EB214289B241EA0241774540F8041BE5
:104FC0004FEA1C434FEA224BDDD2009B58F80330D6
:104FD00073B9019B043B984504D307E0984504F15D
:104FE000FF3403D253F80429002AF7D0C9F810403F
:104FF0005146484602F072F800282BDB0136404645
:10500000002355F8041BD0F800C08AB29A1A0B0C82
:1050100012FA8CF2C3EB1C4303EB224392B242EA36
:105020000342AF4240F8042B4FEA2343E9D258F839
:10503000242008EB84036AB9043B984504D307E0B5
:10504000984504F1FF3403D253F80429002AF7D01D
:10505000C9F81040304603B0BDE8F08F002003B01F
:10506000BDE8F08F000000002DE9F04F016C99B011
:1050700090469946CDE90489259D044641B1426C8C
:105080004A60012393408B6001F0CCFD0023236430
:10509000B9F1000AB4BF012300232B60764BBCBFDB
:1050A0002AF0004ACDF814A033EA0A0300F0AA80DF
:1050B000DDE904231046194600220023CDE90A0148
:1050C000FBF7B0FF074670B1249A01231360269BBB
:1050D000002B00F0E48269481860431E0393039894
:1050E00019B0BDE8F08F16AB019317AB00932046C3
:1050F000DDE90A2302F0B8F85FEA1A56054640F0E7
:105100009780DDE916763E4406F23240202840F3CF
:10511000B583C0F140000AFA00FA06F2124028FAFC
:1051200000F04AEA0000FBF79BFC0123013EA1F1DD
:10513000F8710F93524B0022FBF754FB48A3D3E9BD
:105140000023FBF707FD48A3D3E90023FBF74CFB43
:10515000804630468946FBF793FC45A3D3E90023FC
:10516000FBF7F8FC02460B4640464946FBF73CFB82
:1051700080468946FBF79EFF002283460023404677
:105180004946FBF759FF002840F07C82BBF1160F1F
:1051900000F26B823B4B03EBCB03D3E90023DDE949
:1051A0000A01FBF749FF002872D00023BE1B0E93B3
:1051B000731E0BF1FF3B069300F15E8200230993FF
:1051C000BBF1000F6BDA099BCDF81CB0A3EB0B030E
:1051D0000993CBF100030D93229B092B4FF0000B99
:1051E00066D8052B40F34883043B22930026229B7C
:1051F000023B032B00F26886DFE813F05C045904DD
:1052000050043304249A42F20F73CAF3130A136052
:105210005AEA08031AD1269B002B00F064861A4B29
:1052200003930833269A0398136019B0BDE8F08FF2
:10523000DDE90A12C2F31303084643F07F510F97CA
:10524000A6F2FF36169F41F4401173E7269B002B10
:1052500040F0EA830D4B039341E700BFAFF30080BA
:1052600061436F63A787D23FB3C8608B288AC63F6C
:10527000FB799F501344D33F0000F07FAD910008AD
:105280000000F83FD8920008D4910008D09100089F
:10529000BE1B731E069300F185840E900990069B39
:1052A0005B44CDE9063B00230D93229B092B98D943
:1052B0000023CDE9223301264FF0FF330C960893EB
:1052C000089B129300216164204601F085FC039045
:1052D000002800F00186039B2364089B0E2B00F23C
:1052E0001381002E00F010810799002940F35C849F
:1052F000AE4B01F00F0203EBC2034FEA2118C905C0
:10530000D3E9006740F11484A94BDDE90A01D3E930
:105310000823FBF749FDCDE9100108F00F084FF015
:10532000030AB8F1000F13D0DFF8849218F0010FD0
:1053300009D030463946D9E90023FBF70BFC0AF1C6
:10534000010A06460F465FEA680809F10809EDD12F
:10535000DDE9100132463B46FBF726FD80468946D3
:105360000E9B43B1934B002240464946FBF764FE37
:10537000002840F030855046FBF782FB42464B4602
:10538000FBF7E8FB8C4B0022FBF72EFAA1F15073E0
:10539000CDE910011193089B002B00F09780079B2B
:1053A0001493089B13930C9B002B00F0A584139A75
:1053B0007E4B8249039E03EBC20353E90223002084
:1053C000FBF7F2FCDDE91023FBF70CFACDE9100145
:1053D00049464046FBF76EFE0746FBF751FB024687
:1053E0000B4640464946FBF7FDF93037DDE910230F
:1053F00006F8017B80468946FBF71EFE002840F038
:105400002985CDF854B00027DDE910AB1095139D28
:1054100013942AE00137AF4280F22C85684B504646
:1054200059460022FBF796FB654B002282468B46CD
:1054300040464946FBF78EFB89468046FBF73AFE1D
:105440000446FBF71DFB02460B4640464946FBF768
:10545000C9F9303406F8014B52465B46804689460E
:10546000FBF7EAFD002840F0F38442464B465149E1
:105470000020FBF7B7F952465B46FBF7DDFD00283D
:10548000C8D0DDE91343109D039A079302E09642CA
:1054900000F0C884B24616F8013D392BF7D001332D
:1054A000DBB23370079B01330793C8E15046FBF72B
:1054B000E7FA42464B46FBF74DFB3F4B0022FBF71A
:1054C00093F9A1F15073CDE9100111933D4B404682
:1054D00049460022FBF786F9DDE910894B46424632
:1054E00006460F46FBF7C6FD8146002840F0AA8419
:1054F000DDE91001024601F1004330463946FBF771
:105500009BFD002840F04583179B002BC0F28C8048
:10551000079A0E2A00F38880244B03EBC203D3E9D9
:1055200000AB239B002B1BDA089B002B18DC40F000
:105530002E83244B002250465946FBF70BFB0246B4
:105540000B46DDE90A01FBF781FDDDF820904E46B0
:10555000002800F0C782239BDDF80C80DF43C9E2FE
:10556000DDE90A7852465B4638464146FBF71CFCAB
:10557000FBF7A0FD81460990FBF782FA52465B4695
:10558000FBF7E8FA039E0B46024641463846FBF716
:1055900029F909F1300306F8013B089B012B00F0C3
:1055A0005C830694012704951C462AE0D8920008E3
:1055B000B09200080000F03F00001C400000E03FF7
:1055C000000024400000144052465B4640464946D5
:1055D000FBF7EAFBFBF76EFD0546FBF751FA524677
:1055E0005B46FBF7B7FA01370B4602464946404691
:1055F000FBF7F8F805F13003A74206F8013B00F08D
:105600002983AC4B0022FBF7A5FA00220023804639
:105610008946FBF707FD0028D6D0049D069C079B12
:1056200001330793B2460AE10C9A002A3DD0229A30
:10563000012A40F39C82089B03F1FF380D9B4345F0
:10564000C0F26D82A3EB0808089B002BC0F23C83DC
:10565000069A1A440692099A17461A440992012199
:10566000204601F087FB064623E00123BE1B0E9374
:10567000731E06937FF5A2ADC6F1010309930023C3
:1056800006939DE55846FBF7FBF942464B46FBF770
:10569000C9FC00287FF47AAD0BF1FF3B76E5864B21
:1056A0000393039819B0BDE8F08FDDF83480099FAB
:1056B0000C9E002F0CDD069900290B4608DD099A87
:1056C000B942A8BF3B46D21AFF1ACB1A09920693D9
:1056D0000D9BDBB10C9B002B00F05D82B8F1000F3D
:1056E0000FDD31464246204601F020FC2A460146A5
:1056F0000646204601F06CFB29460546204601F08F
:1057000091FA0D9BB3EB080240F0D88201212046AC
:1057100001F030FBBBF1000F814600F3B480229B07
:10572000012B40F386814FF0000A0120BBF1000FEE
:1057300040F0B580069A104410F01F0000F09380EE
:10574000C0F12003042B40F3D283099BC0F11C005D
:1057500003440244099307440692099B002B05DD8C
:1057600029461A46204601F041FC0546069B002BBF
:1057700005DD49461A46204601F038FC81460E9B5D
:10578000002B40F03681089B002B40F31D810C9BC1
:10579000002B40F0A080079B01330793DDF80C80BD
:1057A000DDF820A0012707E0294600230A22204631
:1057B00001F042FA0137054649462846FFF7C0FB8B
:1057C000574500F1300308F8013BEDDB089A002A49
:1057D000C8BF9346039AD8BF4FF0010B93440027EC
:1057E000294601222046049301F000FC4946054663
:1057F00001F074FC002840F3A8811BF8013C039AD7
:105800000BF1FF3B04E05A4500F0AA811BF8013D73
:10581000392B0BF1010AF6D001338BF800304946E1
:10582000204601F0FFF956B12FB1B74203D03946F7
:10583000204601F0F7F93146204601F0F3F92946F8
:10584000204601F0EFF900238AF80030249B079AE4
:105850001A60269B002B3FF442AC0398C3F800A0CB
:1058600019B0BDE8F08F1C20099B03440993069BE7
:1058700003440744069370E70126B8E4C0F1200012
:1058800008FA00F04FE401465A46204601F04EFB6C
:10589000229B012B814640F3B3814FF0000AD9F8D7
:1058A000103009EB8303186901F016FAC0F12000EB
:1058B00040E700BF00002440AC91000831460023BF
:1058C0000A22204601F0B8F9129B002B064640F34D
:1058D000E782CDE90783002F00F31A81BAF1000FA8
:1058E00040F0D581B046049B039F089903F0010264
:1058F0007B1E1944229B0C92134309910A9349463B
:105900002846FFF71DFB31468346284601F0E6FB9B
:10591000424649468246204601F000FCC2680146E4
:105920000BF13003002A42D106902846089301F07B
:10593000D5FB06990490204601F074F9049A089B5F
:105940001AB90A99002900F09B82BAF1000FC0F23F
:10595000638122994AEA010A0C9951EA0A0100F08E
:105960005B81002A00F3B481099A3B7007F1010AB8
:105970009742D34600F0B281294600230A222046EE
:1059800001F05AF94645054631464FF000034FF005
:105990000A02204612D001F04FF941460646002384
:1059A0000A22204601F048F957468046A7E72046DC
:1059B000049301F037F9049B0122C6E701F03CF99A
:1059C0005746064680469AE7229B022B79DC0C9BC1
:1059D000002B80D1079B4946013328460793FFF7E8
:1059E000AFFADDF80CB000F130030BF8013B0027F3
:1059F000F6E64946284601F071FB0028BFF6C3AE23
:105A0000294600230A22204601F016F9079B03F1DC
:105A1000FF380C9B0546002B7FF450AF129B002BE8
:105A200040F335820893B9E6AF4B03930333FFF796
:105A3000F9BBDDE9041200297FF475AEC2F313034C
:105A4000002B7FF470AEA94B1340002B00F0FE81B9
:105A5000099B01330993069B013306934FF0010A1A
:105A600063E601230C93239B079A1344129301339B
:105A7000012B1F460893B8BF01270021172F61642F
:105A80007FF722AC012204235B0003F11400B8422B
:105A9000114602F10102F7D9616415E401230C9368
:105AA000239B002B4CDD129308931F46E5E7002350
:105AB0000C93D8E700230C93F2E7129BCDF81C80DF
:105AC0000893089B002B7FF446AD494605222046EB
:105AD00001F0B2F801468146284601F0FFFA00289D
:105AE0007FF739AD0398079F3123804600F8013BCB
:105AF000013703904946204601F094F87B1CDDF8FD
:105B00000CA00793CDF80C80002E7FF494AE96E69F
