:020000040800F2
:100000000000022071090008790700087F07000836
:10001000850700088B070008910700080000000012
:10002000000000000000000000000000970700082A
:10003000A307000800000000AF070008BB07000886
:10004000C1090008C1090008C1090008C109000868
:10005000C1090008C1090008C1090008C109000858
:10006000C1090008C1090008210A0008C1090008E7
:10007000C1090008C1090008C1090008C109000838
:10008000C1090008C1090008C1090008C109000828
:10009000C1090008C1090008C1090008C109000818
:1000A000C1090008C1090008C1090008C109000808
:1000B000C1090008C1090008C1090008C1090008F8
:1000C000C1090008C1090008C1090008C1090008E8
:1000D000C1090008C1090008C1090008C1090008D8
:1000E000C1090008C1090008C1090008C1090008C8
:1000F000C1090008C1090008C1090008C1090008B8
:10010000C1090008C1090008C1090008C1090008A7
:10011000C1090008C1090008C1090008C109000897
:10012000C1090008C1090008C1090008C109000887
:10013000C1090008C1090008C1090008C109000877
:10014000C1090008C1090008C1090008C109000867
:10015000C1090008C1090008C1090008C109000857
:10016000C1090008C1090008C1090008C109000847
:10017000C1090008C1090008C10900080000000009
:08018000C1090008C1090008D3
:1001880010B5054C237833B9044B13B10448AFF3C9
:1001980000800123237010BD4C08002000000000DF
:1001A800F834000808B5034B1BB103490348AFF303
:1001B800008008BD0000000050080020F834000846
:1001C80053B94AB9002908BF00281CBF4FF0FF31B6
:1001D8004FF0FF3000F074B9ADF1080C6DE904CEB2
:1001E80000F006F8DDF804E0DDE9022304B070470A
:1001F8002DE9F047089E0D4604468846002B4DD150
:100208008A42944668D9B2FA82F252B101FA02F3EC
:10021800C2F1200120FA01F10CFA02FC41EA0308BC
:1002280094404FEA1C45210CB8FBF5FE1FFA8CF7E9
:1002380005FB1E8341EA03430EFB07F199420BD9E4
:100248001CEB03030EF1FF3080F01E81994240F24F
:100258001B81AEF1020E63445B1AA4B2B3FBF5F046
:1002680005FB103344EA034400FB07F7A7420AD909
:100278001CEB040400F1FF3380F00881A74240F230
:10028800058164440238E41B40EA0E4000211EB197
:10029800D4400023C6E90043BDE8F0878B4208D963
:1002A800002E00F0EE800021C6E900050846BDE8F2
:1002B800F087B3FA83F100294AD1AB4202D38242D4
:1002C80000F2F980841A65EB030301209846002E9A
:1002D800E2D0C6E90048DFE702B9FFDEB2FA82F2EF
:1002E800002A40F09180A1EB0C054FEA1C471FFA49
:1002F8008CFE0121B5FBF7F307FB1350250C45EAEB
:1003080000450EFB03F0A84208D91CEB050503F1D4
:10031800FF3802D2A84200F2CB8043462D1AA4B27D
:10032800B5FBF7F007FB105544EA05440EFB00FE49
:10033800A64508D91CEB040400F1FF3502D2A645F6
:1003480000F2BB802846A4EB0E0440EA03409EE777
:10035800C1F120078B4022FA07FC4CEA030C20FA73
:1003680007F405FA01F31C43FD404FEA1C4900FA63
:1003780001F3B5FBF9F8200C1FFA8CFE09FB1855A0
:1003880040EA054508FB0EF0A84202FA01F20BD933
:100398001CEB050508F1FF3A80F08880A84240F27E
:1003A8008580A8F1020865442D1AA4B2B5FBF9F0BE
:1003B80009FB105544EA054500FB0EFEAE4508D979
:1003C8001CEB050500F1FF346CD2AE456AD9023842
:1003D800654440EA0840A0FB0294A5EB0E05A5423F
:1003E800C846A64656D353D05EB1B3EB080265EBB8
:1003F8000E0505FA07F722FA01F3CD401F43C6E9B7
:1004080000750021BDE8F087C2F1200320FA03F14E
:100418000CFA02FC25FA03F395400D434FEA1C47FA
:100428001FFA8CFEB3FBF7F107FB11302B0C43EAE4
:10043800004301FB0EF0984204FA02F408D91CEBC1
:10044800030301F1FF382FD298422DD902396344B2
:100458001B1AADB2B3FBF7F007FB103345EA0345AF
:1004680000FB0EF3AB4208D91CEB050500F1FF3881
:1004780016D2AB4214D902386544ED1A40EA01415C
:1004880038E73146304607E78646E5E61846FAE695
:100498004B45A9D2B9EB020864EB0C0E0138A3E76F
:1004A8004046EAE7204694E74146D1E7D0467BE755
:1004B800023B654432E7084609E76444023842E7EC
:1004C800704700BF80B485B000AF0023FB60164BB7
:1004D8001B6B154A43F004031363134B1B6B03F0A8
:1004E8000403FB60FB680023BB600F4B1B6B0E4AC9
:1004F80043F0800313630C4B1B6B03F08003BB605A
:10050800BB6800237B60084B1B6B074A43F0010361
:100518001363054B1B6B03F001037B607B6800BF13
:100528001437BD4680BC70470038024080B500AF24
:10053800114800F089F800F0CBFA00F095FA00F0C5
:100548003DFA00F01DF8FFF7BDFF00F09BF901220E
:100558004FF48061094800F00CFE4FF4FA7000F087
:1005680025FB00224FF48061044800F002FE4FF49E
:10057800FA7000F01BFBEAE7700800200014024044
:1005880080B594B000AF07F120033022002118464F
:1005980001F024FF07F10C0300221A605A609A60E8
:1005A800DA601A610023BB60224B1B6C214A43F0BE
:1005B800805313641F4B1B6C03F08053BB60BB68F4
:1005C80000237B601C4B1B681B4A43F48043136069
:1005D800194B1B6803F480437B607B6802233B62F2
:1005E8000123FB6210233B630023BB6307F1200355
:1005F800184600F007FE0346002B01D000F01EF855
:100608000F23FB6000233B6100237B610023BB6158
:100618000023FB6107F10C030021184601F06AF87A
:100628000346002B01D000F009F800BF5037BD4643
:1006380080BD00BF003802400070004080B400AFA9
:1006480072B600BFFEE7000080B582B000AF7860E8
:10065800074A7B681360074B1B68986800230222CF
:10066800002101F00DFF00BF0837BD4680BD00BF67
:10067800680800200C00002080B586B000AFF86044
:10068800B9607A60FB68012B02D0FB68022B11D19C
:100698000E4B18687B689AB24FF0FF33B96801F0C7
:1006A80054FA0346FB75FB7D002B01D17B6808E0FB
:1006B800052306E001F068FE034609221A604FF0A0
:1006C800FF3318461837BD4680BD00BF68080020B4
:1006D80080B586B000AFF860B9607A60FB68002B1F
:1006E80010D10E4B18684FF0FF330122B96801F0A2
:1006F800BEFA0346FB75FB7D002B01D1012308E000
:10070800052306E001F040FE034609221A604FF077
:10071800FF3318461837BD4680BD00BF6808002063
:1007280080B582B000AF00237B60104B5B6C0F4A32
:1007380043F4804353640D4B5B6C03F480437B604C
:100748007B6800233B60094B1B6C084A43F08053CD
:100758001364064B1B6C03F080533B603B68052019
:1007680000F014FB00BF0837BD4680BD00380240CA
:1007780080B400AFFEE780B400AFFEE780B400AFFE
:10078800FEE780B400AFFEE780B400AFFEE780B4B8
:1007980000AF00BFBD4680BC704780B400AF00BF4B
:1007A800BD4680BC704780B400AF00BFBD4680BC6A
:1007B800704780B500AF00F0DDF900BF80BD80B4A0
:1007C80083B000AF78604FF0FF3318460C37BD4652
:1007D80080BC704780B483B000AF786039603B68F4
:1007E8004FF400525A60002318460C37BD4680BCAF
:1007F800704780B485B000AFF860B9607A600023B4
:1008080018461437BD4680BC7047000080B586B0D6
:1008180000AF7860144A154BD31A7B617B693B6142
:10082800134B1B68002B02D1114B124A1A60104B54
:100838001A687B6813443A699A4207D201F0A4FD0A
:1008480003460C221A604FF0FF3309E0084B1B687F
:10085800FB60074B1A687B681344054A1360FB6802
:1008680018461837BD4680BD00000220000400006D
:100878006C0800200009002080B400AF00BFBD460E
:1008880080BC704780B500AF114B124A1A60104BFC
:100898004FF4E1325A600E4B00229A600C4B002252
:1008A800DA600B4B00221A61094B0C225A61084B83
:1008B80000229A61064B0022DA61054801F0F8F837
:1008C8000346002B01D0FFF7B9FE00BF80BD00BF73
:1008D800700800200010014080B58AB000AF786031
:1008E80007F1140300221A605A609A60DA601A61EC
:1008F8007B681B68194A93422CD100233B61184B33
:100908005B6C174A43F010035364154B5B6C03F0A0
:1009180010033B613B690023FB60114B1B6B104AC2
:1009280043F0010313630E4B1B6B03F00103FB60E1
:10093800FB684FF4C0637B610223BB610023FB614A
:1009480003233B6207237B6207F11403194605481A
:1009580000F05EFA00BF2837BD4680BD0010014098
:100968000038024000000240DFF834D00D480E493C
:100978000E4A002302E0D458C4500433C4188C42F1
:10098800F9D30B4A0B4C002301E013600432A24256
:10099800FBD3FFF771FF01F0FDFCFFF7C7FD7047C0
:1009A80000000220000000204C080020403500080C
:1009B8004C08002000090020FEE7000080B586B042
:1009C80000AF00233B60124B1B6B114A43F010032E
:1009D80013630F4B1B6B03F010033B603B68102342
:1009E8007B604FF40413BB600123FB603B1D194679
:1009F800084800F00DFA002202210A2000F0D1F97F
:100A08000A2000F0EAF900BF1837BD4680BD00BFD4
:100A1800003802400010024080B500AF102000F0FE
:100A2800D9FB00BF80BD000080B582B000AF03468F
:100A3800FB80142000F0BAF8FB88102B0BD1102192
:100A4800074800F07FFB0346002B04D14FF40071E8
:100A5800044800F0A6FB00BF0837BD4680BD00BFB4
:100A6800001002400014024080B586B000AF002399
:100A78003B60154B1B6B144A43F020031363124B66
:100A88001B6B03F020033B603B684FF4C063FB60C3
:100A98000123BB600123FB6000233B613B1D19461A
:100AA8000A4800F0B5F901224FF40071074800F038
:100AB80060FB01224FF48061044800F05AFB00BF3C
:100AC8001837BD4680BD00BF003802400014024000
:100AD80080B500AF0E4B1B680D4A43F400731360DA
:100AE8000B4B1B680A4A43F480631360084B1B686E
:100AF800074A43F480731360032000F047F900208D
:100B080000F008F8FFF70CFE0023184680BD00BF70
:100B1800003C024080B582B000AF7860124B1A6882
:100B2800124B1B7819464FF47A73B3FBF1F3B2FBFF
:100B3800F3F3184600F05FF90346002B01D00123B8
:100B48000EE07B680F2B0AD8002279684FF0FF303F
:100B580000F027F9064A7B681360002300E00123B0
:100B680018460837BD4680BD000000200800002058
:100B78000400002080B400AF054B1B781A46054BD3
:100B88001B681344034A136000BFBD4680BC70470E
:100B980008000020B408002080B400AF024B1B6896
:100BA8001846BD4680BC7047B408002080B584B0A4
:100BB80000AF7860FFF7F0FFB8607B68FB60FB6808
:100BC800B3F1FF3F05D00A4B1B781A46FB68134464
:100BD800FB6000BFFFF7E0FF0246BB68D31AFA6864
:100BE8009A42F7D800BF00BF1037BD4680BD00BF8E
:100BF8000800002080B485B000AF78607B6803F0FF
:100C08000703FB600C4BDB68BB60BA684FF6FF0359
:100C18001340BB60FB681A02BB68134343F0BF6311
:100C280043F40033BB60044ABB68D36000BF143789
:100C3800BD4680BC704700BF00ED00E080B400AF47
:100C4800044BDB681B0A03F007031846BD4680BC4B
:100C5800704700BF00ED00E080B483B000AF0346EA
:100C6800FB7197F90730002B0BDBFB7903F01F02B0
:100C7800064997F907305B09012000FA02F241F8AA
:100C8800232000BF0C37BD4680BC704700E100E060
:100C980080B483B000AF03463960FB7197F9073021
:100CA800002B0ADB3B68DAB20C4997F907301201CE
:100CB800D2B20B4483F800230AE03B68DAB2084951
:100CC800FB7903F00F03043B1201D2B20B441A76EE
:100CD80000BF0C37BD4680BC704700BF00E100E094
:100CE80000ED00E080B489B000AFF860B9607A60C8
:100CF800FB6803F00703FB61FB69C3F10703042BDF
:100D080028BF0423BB61FB690433062B02D9FB69A6
:100D1800033B00E000237B614FF0FF32BB6902FA1E
:100D280003F3DA43BB681A407B699A404FF0FF31FE
:100D38007B6901FA03F3D9437B680B4013431846D8
:100D48002437BD4680BC704780B582B000AF78605C
:100D58007B68013BB3F1807F01D301230FE00A4A8E
:100D68007B68013B53600F214FF0FF30FFF790FF86
:100D7800054B00229A60044B07221A60002318468C
:100D88000837BD4680BD00BF10E000E080B582B0E6
:100D980000AF78607868FFF72DFF00BF0837BD46C1
:100DA80080BD80B586B000AF0346B9607A60FB733A
:100DB80000237B61FFF742FF78617A68B968786938
:100DC800FFF790FF024697F90F3011461846FFF7D4
:100DD8005FFF00BF1837BD4680BD80B582B000AF49
:100DE8000346FB7197F907301846FFF735FF00BF38
:100DF8000837BD4680BD80B582B000AF786078689E
:100E0800FFF7A2FF034618460837BD4680BD00001D
:100E180080B489B000AF7860396000237B6100231B
:100E28003B610023BB610023FB616BE10122FB698D
:100E380002FA03F37B613B681B687A6913403B61E4
:100E48003A697B699A4240F05A813B685B6803F0D3
:100E58000303012B05D03B685B6803F00303022BF7
:100E680030D17B689B68BB61FB695B00032202FA97
:100E780003F3DB43BA691340BB613B68DA68FB697B
:100E88005B0002FA03F3BA691343BB617B68BA6972
:100E98009A607B685B68BB610122FB6902FA03F315
:100EA800DB43BA691340BB613B685B681B0903F00D
:100EB8000102FB6902FA03F3BA691343BB617B6859
:100EC800BA695A603B685B6803F00303032B17D0C9
:100ED8007B68DB68BB61FB695B00032202FA03F3F2
:100EE800DB43BA691340BB613B689A68FB695B00E6
:100EF80002FA03F3BA691343BB617B68BA69DA6023
:100F08003B685B6803F00303022B23D1FB69DA0813
:100F18007B68083253F82230BB61FB6903F0070392
:100F28009B000F2202FA03F3DB43BA691340BB614B
:100F38003B681A69FB6903F007039B0002FA03F395
:100F4800BA691343BB61FB69DA087B680832B9697F
:100F580043F822107B681B68BB61FB695B000322B6
:100F680002FA03F3DB43BA691340BB613B685B6871
:100F780003F00302FB695B0002FA03F3BA69134347
:100F8800BB617B68BA691A603B685B6803F44033ED
:100F9800002B00F0B4800023FB605F4B5B6C5E4A63
:100FA80043F4804353645C4B5B6C03F48043FB6005
:100FB800FB685A4AFB699B08023352F82330BB612D
:100FC800FB6903F003039B000F2202FA03F3DB43E0
:100FD800BA691340BB617B68514A93422BD07B6846
:100FE800504A934225D07B684F4A93421FD07B6872
:100FF8004E4A934219D07B684D4A934213D07B687E
:101008004C4A93420DD07B684B4A934207D07B6889
:101018004A4A934201D107230EE008230CE0062335
:101028000AE0052308E0042306E0032304E0022382
:1010380002E0012300E00023FA6902F003029200B3
:101048009340BA691343BB613449FB699B08023377
:10105800BA6941F823203A4B9B68BB613B69DB4383
:10106800BA691340BB613B685B6803F48013002BCB
:1010780003D0BA693B691343BB61314ABB699360CA
:101088002F4BDB68BB613B69DB43BA691340BB612B
:101098003B685B6803F40013002B03D0BA693B6913
:1010A8001343BB61264ABB69D360254B5B68BB61B0
:1010B8003B69DB43BA691340BB613B685B6803F477
:1010C8000033002B03D0BA693B691343BB611C4A48
:1010D800BB6953601A4B1B68BB613B69DB43BA6948
:1010E8001340BB613B685B6803F48033002B03D07B
:1010F800BA693B691343BB61114ABB691360FB6959
:101108000133FB61FB690F2B7FF690AE00BF00BF78
:101118002437BD4680BC7047003802400038014083
:10112800000002400004024000080240000C024097
:10113800001002400014024000180240001C024047
:10114800003C014080B485B000AF78600B467B80DE
:101158007B681A697B881340002B02D00123FB733C
:1011680001E00023FB73FB7B18461437BD4680BCA7
:10117800704780B483B000AF78600B467B8013461D
:101188007B707B78002B03D07A887B689A6103E0B8
:101198007B881A047B689A6100BF0C37BD4680BC07
:1011A800704780B485B000AF78600B467B807B6861
:1011B8005B69FB607A88FB6813401A04FB68D943B3
:1011C8007B880B401A437B689A6100BF1437BD4681
:1011D80080BC704780B582B000AF0346FB80084BE7
:1011E8005A69FB881340002B06D0054AFB885361D7
:1011F800FB881846FFF718FC00BF0837BD4680BDBE
:10120800003C014080B586B000AF78607B68002B59
:1012180001D1012367E27B681B6803F00103002BFF
:1012280075D0884B9B6803F00C03042B0CD0854BBE
:101238009B6803F00C03082B12D1824B5B6803F404
:101248008003B3F5800F0BD17E4B1B6803F400338A
:10125800002B5BD07B685B68002B57D1012342E2EF
:101268007B685B68B3F5803F06D1764B1B68754A8F
:1012780043F4803313601DE07B685B68B3F5A02FEF
:101288000CD1704B1B686F4A43F4802313606D4B7D
:101298001B686C4A43F4803313600BE0694B1B688E
:1012A800684A23F480331360664B1B68654A23F44D
:1012B800802313607B685B68002B13D0FFF76CFCFE
:1012C800386108E0FFF768FC02463B69D31A642BD3
:1012D80001D9032307E25B4B1B6803F40033002B9F
:1012E800F0D014E0FFF758FC386108E0FFF754FC31
:1012F80002463B69D31A642B01D90323F3E1514B0E
:101308001B6803F40033002BF0D100E000BF7B68BA
:101318001B6803F00203002B63D04A4B9B6803F061
:101328000C03002B0BD0474B9B6803F00C03082BD6
:101338001CD1444B5B6803F48003002B16D1414B4E
:101348001B6803F00203002B05D07B68DB68012BC8
:1013580001D00123C7E13B4B1B6823F0F8027B68EF
:101368001B69DB00374913430B603AE07B68DB6895
:10137800002B20D0344B01221A60FFF70DFC386196
:1013880008E0FFF709FC02463B69D31A022B01D992
:101398000323A8E12B4B1B6803F00203002BF0D0BA
:1013A800284B1B6823F0F8027B681B69DB00254982
:1013B80013430B6015E0244B00221A60FFF7ECFB87
:1013C800386108E0FFF7E8FB02463B69D31A022BB5
:1013D80001D9032387E11B4B1B6803F00203002B91
:1013E800F0D17B681B6803F00803002B36D07B68BC
:1013F8005B69002B16D0154B01221A60FFF7CCFB56
:10140800386108E0FFF7C8FB02463B69D31A022B94
:1014180001D9032367E10B4B5B6F03F00203002B39
:10142800F0D01BE0094B00221A60FFF7B5FB3861CA
:101438000EE0FFF7B1FB02463B69D31A022B07D92E
:10144800032350E10038024000004742800E474223
:10145800884B5B6F03F00203002BEAD17B681B68A3
:1014680003F00403002B00F097800023FB75814BE9
:101478001B6C03F08053002B0FD10023BB607D4B06
:101488001B6C7C4A43F0805313647A4B1B6C03F04B
:101498008053BB60BB680123FB75774B1B6803F463
:1014A8008073002B18D1744B1B68734A43F4807304
:1014B8001360FFF771FB386108E0FFF76DFB024628
:1014C8003B69D31A022B01D903230CE16A4B1B6831
:1014D80003F48073002BF0D07B689B68012B06D146
:1014E800644B1B6F634A43F0010313671CE07B687E
:1014F8009B68052B0CD15F4B1B6F5E4A43F00403BE
:1015080013675C4B1B6F5B4A43F0010313670BE0E7
:10151800584B1B6F574A23F001031367554B1B6F3A
:10152800544A23F0040313677B689B68002B15D08B
:10153800FFF732FB38610AE0FFF72EFB02463B69F2
:10154800D31A41F28832934201D90323CBE0494BA5
:101558001B6F03F00203002BEED014E0FFF71CFB17
:1015680038610AE0FFF718FB02463B69D31A41F2DB
:101578008832934201D90323B5E03E4B1B6F03F039
:101588000203002BEED1FB7D012B05D1394B1B6CDF
:10159800384A23F0805313647B689B69002B00F062
:1015A800A180344B9B6803F00C03082B5CD07B684C
:1015B8009B69022B41D1314B00221A60FFF7ECFAEC
:1015C800386108E0FFF7E8FA02463B69D31A022BB4
:1015D80001D9032387E0274B1B6803F00073002B16
:1015E800F0D17B68DA697B681B6A1A437B685B6A9F
:1015F8009B011A437B689B6A5B08013B1B041A43E7
:101608007B68DB6A1B061B4913434B601B4B01229B
:101618001A60FFF7C1FA386108E0FFF7BDFA024621
:101628003B69D31A022B01D903235CE0114B1B68D9
:1016380003F00073002BF0D054E0104B00221A6026
:10164800FFF7AAFA386108E0FFF7A6FA02463B69F5
:10165800D31A022B01D9032345E0064B1B6803F07C
:101668000073002BF0D13DE07B689B69012B07D10B
:10167800012338E000380240007000406000474213
:101688001B4B5B68FB607B689B69012B28D0FB6860
:1016980003F480027B68DB699A4221D1FB6803F07E
:1016A8003F027B681B6A9A421AD1FA6847F6C073F0
:1016B80013407A68526A9201934211D1FB6803F48D
:1016C80040327B689B6A5B08013B1B049A4207D146
:1016D800FB6803F070627B68DB6A1B069A4201D0E4
:1016E800012300E0002318461837BD4680BD00BF1F
:1016F8000038024080B584B000AF786039607B68FC
:10170800002B01D10123CCE0684B1B6803F00703D1
:101718003A689A420CD9654B3A68D2B21A70634B50
:101728001B6803F007033A689A4201D00123B8E026
:101738007B681B6803F00203002B20D07B681B68C2
:1017480003F00403002B05D0594B9B68584A43F417
:10175800E05393607B681B6803F00803002B05D0F7
:10176800534B9B68524A43F460439360504B9B68C9
:1017780023F0F0027B689B684D4913438B607B68BC
:101788001B6803F00103002B44D07B685B68012BC6
:1017980007D1474B1B6803F40033002B19D10123F1
:1017A8007FE07B685B68022B03D07B685B68032B58
:1017B80007D13F4B1B6803F00073002B09D10123AD
:1017C8006FE03B4B1B6803F00203002B01D10123A0
:1017D80067E0374B9B6823F003027B685B683449FA
:1017E80013438B60FFF7D8F9F8600AE0FFF7D4F9E4
:1017F8000246FB68D31A41F28832934201D9032387
:101808004FE02B4B9B6803F00C027B685B689B00E6
:101818009A42EBD1254B1B6803F007033A689A42BA
:101828000CD2224B3A68D2B21A70204B1B6803F0D4
:1018380007033A689A4201D0012332E07B681B68AB
:1018480003F00403002B08D0194B9B6823F4E052E3
:101858007B68DB68164913438B607B681B6803F061
:101868000803002B09D0124B9B6823F460427B6865
:101878001B69DB000E4913438B6000F021F8024618
:101888000B4B9B681B0903F00F030A49CB5C22FA38
:1018980003F3094A1360094B1B681846FFF73AF926
:1018A800002318461037BD4680BD00BF003C0240EB
:1018B8000038024010350008000000200400002015
:1018C8002DE9B04F90B000AF00237B630023FB638A
:1018D80000233B630023BB63594B9B6803F00C0355
:1018E800082B0DD0082B00F2A280002B02D0042B6D
:1018F80003D09CE0534BBB639CE0534BBB6399E024
:101908004F4B5B6803F03F037B634D4B5B6803F40D
:101918008003002B27D04A4B5B689B0900223B625F
:101928007A623B6AC3F308000021474B03FB01F2CC
:10193800002300FB03F31344434AA0FB0221F9628E
:10194800BA62FA6A1344FB627B6B0022BB61FA61DC
:10195800D7E90623D7E90A01FEF732FC02460B460F
:101968001346FB6355E0364B5B689B0900223B61DD
:101978007A613B69C3F3080A4FF0000B52465B4695
:101988004FF000004FF00001590141EAD2615001C7
:1019980002460B46B2EB0A0863EB0B094FF0000254
:1019A8004FF000034FEA891343EA98634FEA88121D
:1019B800B2EB080463EB09054FF000024FF0000397
:1019C800EB0043EA5473E20014461D4614EB0A0385
:1019D8003B6045EB0B037B604FF000024FF00003C8
:1019E800D7E9004529468B0220462946044643EAA2
:1019F800945301468A02104619467B6B0022BB604D
:101A0800FA60D7E90223FEF7DBFB02460B461346D2
:101A1800FB630B4B5B681B0C03F0030301335B0098
:101A28003B63FA6B3B6BB2FBF3F3BB6302E0054B22
:101A3800BB6300BFBB6B18464037BD46BDE8B08FDF
:101A4800003802400024F40040787D0180B400AFE3
:101A5800024B1B681846BD4680BC7047000000203A
:101A680080B500AFFFF7F2FF0246054B9B689B0A63
:101A780003F007030349CB5C22FA03F3184680BD41
:101A8800003802402035000880B500AFFFF7DEFFC0
:101A98000246054B9B685B0B03F007030349CB5CCD
:101AA80022FA03F3184680BD0038024020350008AA
:101AB80080B582B000AF78607B68002B01D101232C
:101AC8003FE07B6893F83D30DBB2002B06D17B68A2
:101AD800002283F83C207868FEF7FEFE7B6824220B
:101AE80083F83D207B681B68DA687B681B6822F4F2
:101AF8000052DA60786800F0CBF97B681B681A69D5
:101B08007B681B6822F490421A617B681B685A69DB
:101B18007B681B6822F02A025A617B681B68DA68B6
:101B28007B681B6842F40052DA607B6800221A6402
:101B38007B68202283F83D207B68202283F83E20A2
:101B4800002318460837BD4680BD80B58AB002AF6D
:101B5800F860B9603B601346FB8000237B61FB683B
:101B680093F83D30DBB2202B7CD1BB68002B02D030
:101B7800FB88002B01D1012375E0FB6893F83C300A
:101B8800012B01D102236EE0FB68012283F83C207F
:101B9800FB6800221A64FB68212283F83D20FEF7C7
:101BA800FBFF7861FB68FA889A84FB68FA88DA8414
:101BB800FB689B68B3F5805F08D1FB681B69002B45
:101BC80004D10023FB61BB68BB6103E0BB68FB6118
:101BD8000023BB61FB68002283F83C202AE03B68B5
:101BE80000937B6900228021F86800F0E2F8034640
:101BF800002B01D0032336E0FB69002B0BD1BB6916
:101C08001B881A46FB681B68C2F308025A60BB6946
:101C18000233BB6107E0FB691A78FB681B685A60EE
:101C2800FB690133FB61FB68DB8C9BB2013B9AB219
:101C3800FB68DA84FB68DB8C9BB2002BCFD13B6856
:101C480000937B6900224021F86800F0B2F803464F
:101C5800002B01D0032306E0FB68202283F83D20F7
:101C6800002300E0022318462037BD4680BD80B51A
:101C78008AB002AFF860B9603B601346FB8000236E
:101C88007B61FB6893F83E30DBB2202B40F08C8000
:101C9800BB68002B02D0FB88002B01D1012384E014
:101CA800FB6893F83C30012B01D102237DE0FB68EF
:101CB800012283F83C20FB6800221A64FB68222278
:101CC80083F83E20FB6800221A63FEF765FF7861FF
:101CD800FB68FA889A85FB68FA88DA85FB689B684E
:101CE800B3F5805F08D1FB681B69002B04D1002382
:101CF800FB61BB68BB6103E0BB68FB610023BB61A0
:101D0800FB68002283F83C2043E03B6800937B6932
:101D180000222021F86800F04CF80346002B01D07F
:101D2800032342E0FB69002B0CD1FB681B685B684E
:101D38009BB2C3F308039AB2BB691A80BB6902332A
:101D4800BB611FE0FB689B68B3F5805F07D0FB6849
:101D58009B68002B0AD1FB681B69002B06D1FB6826
:101D68001B685B68DAB2FB691A7008E0FB681B68DD
:101D78005B68DBB203F07F03DAB2FB691A70FB69B8
:101D88000133FB61FB68DB8D9BB2013B9AB2FB68B8
:101D9800DA85FB68DB8D9BB2002BB6D1FB6820226D
:101DA80083F83E20002300E0022318462037BD4672
:101DB80080BD80B590B000AFF860B9603B60134655
:101DC800FB7150E0BB6CB3F1FF3F4CD0BB6C002BF8
:101DD80007D0FEF7E1FE02463B68D31ABA6C9A4276
:101DE80041D2FB681B680C33BB62BB6A53E8003FF7
:101DF8007B627B6A23F4D073FB63FB681B680C333C
:101E0800FA6B7A633B63396B7A6B41E80023FB62B8
:101E1800FB6A002BE5D1FB681B6814337B617B6987
:101E280053E8003F3B613B6923F00103BB63FB6858
:101E38001B681433BA6B3A62FB61F9693A6A41E884
:101E48000023BB61BB69002BE5D1FB68202283F826
:101E58003D20FB68202283F83E20FB68002283F89F
:101E68003C2003230FE0FB681B681A68BB6813401B
:101E7800BA689A420CBF01230023DBB21A46FB79E9
:101E88009A429FD0002318464037BD4680BD0000C7
:101E98002DE9B04FC0B000AFC7F8F400D7F8F43060
:101EA8001B681B6923F44050D7F8F430D968D7F879
:101EB800F4301A6840EA01031361D7F8F4309A68DD
:101EC800D7F8F4301B691A43D7F8F4305B691A4322
:101ED800D7F8F430DB691343C7F8F830D7F8F43093
:101EE8001B68DB6823F4164121F00C01D7F8F430A5
:101EF8001A68D7F8F8300B43D360D7F8F4301B686A
:101F08005B6923F44070D7F8F4309969D7F8F43056
:101F18001A6840EA01035361D7F8F4301A68914B04
:101F28009A4205D0D7F8F4301A688F4B9A4204D1F8
:101F3800FFF7AAFDC7F8FC0003E0FFF791FDC7F81B
:101F4800FC00D7F8F430DB69B3F5004F40F010819E
:101F5800D7F8FC300022C7F8E830C7F8EC20D7E9FA
:101F68003A4522462B469118B9655B41FB65D7E98E
:101F7800162320462946044612EB04080C4643EB78
:101F880004094FF000024FF000034FEAC90343EA87
:101F980058734FEAC80290469946034618EB030364
:101FA800C7F8E0300B4649EB0303C7F8E430D7F82D
:101FB800F4305B680022C7F8D830C7F8DC20D7E9CE
:101FC80036120B46DB183B65134642EB03037B6571
:101FD800D7E91423D7E93801FEF7F2F802460B4691
:101FE800624BA3FB02235B091C01D7F8FC300022DB
:101FF800C7F8D030C7F8D420D7E9348942464B46D1
:102008009118B9645B41FB64D7E91223454612EB8A
:10201800050A404649460D4643EB050B4FF00002C2
:102028004FF000034FEACB0343EA5A734FEACA0260
:1020380092469B4603461AEB0303C7F8C8300B4683
:102048004BEB0303C7F8CC30D7F8F4305B680022B9
:10205800C7F8C030C7F8C420D7E930120B46DB18E0
:102068003B64134642EB03037B64D7E91023D7E9AB
:102078003201FEF7A5F802460B4611463B4BA3FB7F
:1020880001235B09642202FB03F3CB1ADB0003F193
:102098003202364BA3FB02235B095B0003F4F8739F
:1020A8001C44D7F8FC300022C7F8B830C7F8BC2069
:1020B800D7E92E8942464B469118B9635B41FB63C9
:1020C800D7E90E2341465118396349464B417B6392
:1020D8004FF000024FF00003D7E90CAB5946CB0094
:1020E800554643EA55735146CA00104619460346F9
:1020F80042469B18C7F8B0304B460A4642EB0303EA
:10210800C7F8B430D7F8F4305B680022C7F8A830B5
:10211800C7F8AC20D7E92A120B46DB18BB62134676
:1021280042EB0303FB62D7E90A23D7E92C01FEF748
:1021380047F802460B460D4BA3FB02135B096421CB
:1021480001FB03F3D31ADB003233084AA2FB032353
:102158005B0903F00702D7F8F4301B6822449A6041
:1021680009E100BF00100140001401401F85EB5138
:10217800D7F8FC300022C7F8A030C7F8A420D7E968
:10218800288942464B46911839625B417B62D7E900
:10219800082341465418CC4643EB0C054FF0000287
:1021A8004FF00003EB0043EA5473E20014461D4667
:1021B800404649460346E318C7F898300B4645EBB6
:1021C8000303C7F89C30D7F8F4305B680022C7F8DF
:1021D8009030C7F894204FF000024FF00003D7E981
:1021E800244529468B0020462946044643EA947331
:1021F80001468A00D7E92601FDF7E2FF02460B46B1
:10220800604BA3FB02235B091C01D7F8FC300022BA
:10221800C7F88830C7F88C20D7E9228942464B4650
:102228009118B9615B41FB61D7E906234146511812
:10223800396149464B417B614FF000024FF0000382
:10224800D7E904AB5946CB00554643EA5573514686
:10225800CA0010461946034642469B18C7F8803004
:102268004B460A4642EB0303C7F88430D7F8F430EC
:102278005B680022BB67FA674FF000024FF000036B
:10228800D7E91E8949468B00454643EA957341467E
:102298008A00D7E92001FDF793FF02460B46394B28
:1022A800A3FB02135B09642101FB03F3D31A1B018F
:1022B8003233344AA2FB03235B0903F0F0031C44C6
:1022C800D7F8FC3000223B677A67D7E91C89424679
:1022D8004B469118B9605B41FB60D7E90223414640
:1022E8005118396049464B417B604FF000024FF06E
:1022F8000003D7E900AB5946CB00554643EA55736E
:102308005146CA0010461946034642469B18BB660A
:102318004B460A4642EB0303FB66D7F8F4305B688A
:1023280000223B667A664FF000024FF00003D7E9BF
:10233800188949468B00454643EA957341468A0009
:10234800D7E91A01FDF73CFF02460B460D4BA3FBEC
:1023580002135B09642101FB03F3D31A1B01323317
:10236800084AA2FB03235B0903F00F02D7F8F430F5
:102378001B6822449A6000BF07F58077BD46BDE818
:10238800B08F00BF1F85EB51014B1868704700BF25
:102398000C00002070B50D4E0D4D761BB61006D002
:1023A800002455F8043B01349847A642F9D1094E58
:1023B800094D761B01F09CF8B61006D0002455F89C
:1023C800043B01349847A642F9D170BD3435000862
:1023D800343500083C35000834350008830730B52B
:1023E80048D0541E002A3FD0CAB2034601E0013C3F
:1023F8003AD303F8012B9D07F9D1032C2DD9CDB27F
:1024080045EA05250F2C45EA054536D9A4F1100201
:1024180022F00F0C03F1200EE6444FEA121C03F1E0
:10242800100242E9045542E9025510327245F8D1CA
:102438000CF1010214F00C0F03EB021204F00F0C64
:1024480013D0ACF1040323F003030433134442F81C
:10245800045B9342FBD10CF003042CB1CAB21C44B8
:1024680003F8012B9C42FBD130BD64461346002C77
:10247800F4D1F9E703461446BFE71A46A446E0E755
:102488002DE9F043694CD4F8008083B004460E4629
:1024980017461D46B8F1000F03D0D8F83830002B86
:1024A80077D0022F05D0012F00F2AC80002DC0F2AA
:1024B800A980636EDA0752D52146404600F058F9E4
:1024C800216B41B104F14003994202D0404600F02B
:1024D8007BFA00232363B4F90CC000231CF0800F9F
:1024E800A361636064D12CF44A6C2CF0030C022FB6
:1024F800A4F80CC06AD001AB6A462146404600F0F9
:1025080095FBA3891843A081002D2FD0002E2ED033
:10251800D8F83830002B38D0009B2660AB42B4F98D
:102528000C301CBF43F40063A381012F04BF43F0A8
:102538000103A3819AB213F00803C4E904652CD0FF
:10254800D1075DD56D42A561656E002315F00105C3
:10255800A36027D00025284603B0BDE8F083A389EF
:102568009B05A9D4A06D00F05DFBA5E7009D28465A
:1025780000F08CFB0646002847D0A38943F080036F
:10258800A381D8F83830002BC6D1404600F024F992
:10259800C2E7404600F020F983E7A360656E15F0B6
:1025A8000105D7D1930524D5284603B0BDE8F083AB
:1025B8002169404600F008FAB4F90CC02CF44A6CC2
:1025C8002CF0030C022FA4F80CC094D10025002293
:1025D80004F14303A2600122C4E904322360636E5C
:1025E8004CF0020CD807A4F80CC0DDD41CF4007F12
:1025F800DAD1A06D00F018FB284603B0BDE8F083DF
:10260800A560CBE74FF0FF35CEE7DDF80090A94590
:1026180004D0484600F03AFB064620B9B4F90CC08D
:102628004FF0FF35D3E74D46A7E700BF0C00002069
:10263800024B13B1024800F005B8704700000000D3
:1026480005290008002301461A46184600F050BE26
:10265800B1F90C20F8B50C461107074642D4636857
:1026680042F40062002BA28159DDA56A002D54D0E6
:1026780000233E683B6093B212F4805253D1E16963
:1026880001233846A847421C63D0A389A56A5B0783
:1026980005D56368C01A236B0BB1E36BC01AE169F7
:1026A800024600233846A847411C3ED13B68002B10
:1026B8003BD01D2B01D0162B52D1A3892269226051
:1026C80023F4006300216160A381216B3E6021B384
:1026D80004F14003994202D0384600F075F9002011
:1026E8002063F8BD2669C6B193B2256826609A07AB
:1026F8000CBF63690023AD1BA3600CE0D4F824C0B1
:10270800E1692B4632463846E047B0F1000CA5EBAC
:102718000C05664416DD002DF0DC0020F8BDE36BE7
:10272800002BA2DCF9E7206DB1E7B4F90C3022697F
:10273800226023F40063A3810022DB046260C4D515
:102748002065C2E7A38943F040034FF0FF30A3811F
:10275800F8BD3B68002B98D01D2B06D0162B04D053
:10276800A38943F04003A381F8BD3E60D5E700BFCD
:1027780038B50C46054608B1836BA3B1B4F90C0013
:10278800B8B1636EDB0701D4810515D5284621460B
:10279800FFF75EFF636EDA07054602D4A3899B053F
:1027A8000ED5284638BD00F017F8B4F90C000028FB
:1027B800E7D10546284638BDA06D00F033FAE5E7B5
:1027C800A06D00F031FA284638BD00BF014900F07D
:1027D80001BA00BFA93300082DE9F04782463948FD
:1027E80000F020FADAF83840002C66D1DAF8045004
:1027F800354ACAF83C200323CAE9B843DFF8CC902D
:10280800DFF8CC80334F344E04230AF53B72CAF804
:10281800E8222146C5E90243C5E90044C5E9044464
:102828006C660822AC6105F15C00FFF7D7FDC5E9CD
:102838000759C5E90987EE6205F1580000F0EEF97D
:10284800DAF80850254BEB602146C5E90044C5E994
:1028580004446C66AC60AC61082205F15C00FFF7CB
:10286800BDFDC5E90759C5E90987EE6205F15800BC
:1028780000F0D4F9DAF80C50194BEB602146C5E9A1
:102888000044C5E904446C66AC60AC61082205F1FB
:102898005C00FFF7A3FD05F15800C5E90759C5E934
:1028A8000A76C5F8248000F0B9F90123CAF838304F
:1028B8000448BDE8F04700F0B7B9BDE8F047014863
:1028C80000F0B2B9C4080020D5270008413200083A
:1028D80065320008A5320008C53200080900010069
:1028E80012000200014800F09DB900BFC008002096
:1028F800014800F099B900BFC008002038B5084B5E
:10290800084D5B1B9C1007D0043B1D44013C55F847
:1029180004399847002CF9D1BDE8384000F0EEBDE5
:10292800403500083C350008F8B5244F0C460646EB
:1029380000F064FCBA685568C4F57E630F3325F06F
:1029480003052B4423F47F6323F00F03A3F580547E
:10295800B4F5805F07DB0021304600F05BFCBB6804
:102968002B44984204D0304600F04EFC0020F8BDBD
:102978006142304600F04EFC01300DD0104ABB6871
:102988002D1B45F001055D60136830461B1B136065
:1029980000F03AFC0120F8BD0021304600F03AFC76
:1029A800BA68831A0F2BDEDD43F001035360054B31
:1029B80003491B68C01A0860D5E700BF3C04002023
:1029C800C808002044080020002961D0F8B50C464A
:1029D800064600F013FC54F8042C7B4FA4F10805BC
:1029E80022F0010105EB010CB868DCF80430604501
:1029F80023F0030300F08B80D207CCF8043032D4E4
:102A080054F8082CAD1A1144AA6807F1080082424C
:102A18006AD00CEB0304D4F804E0EC68D4601EF030
:102A2800010FA26000F0978041F001036B60CCF8C1
:102A38000010B1F5007F35D27A68CB08480901212A
:102A4800013381401143796007EBC30257F8331013
:102A5800083AC5E9021247F83350CD603046BDE860
:102A6800F84000F0D1BB0CEB03025268D00710D439
:102A7800194407F10800DCF80830834273D0DCF809
:102A88000C20DA60936041F001036B606950D0E775
:102A9800704741F00103B1F5007F44F8043CCCF8DD
:102AA8000010C9D3B1F5206F4FEA512348D28B09E2
:102AB80003F1390003F13802C300F818FB5808384D
:102AC800984259D05A6822F003028A4202D99B6878
:102AD8009842F7D1D868C5E902308560DD60304694
:102AE800BDE8F84000F090BB0CEB03025268D20737
:102AF80063D40B44DCE90212CA60916043F001021E
:102B08006A603046EB50BDE8F84000F07DBB0B44EE
:102B1800D10707D454F8082CAD1A1344D5E902128A
:102B2800CA60916043F001026A60284ABD60126879
:102B38009A4293D8264B30461968FFF7F5FE8DE781
:102B4800142B0AD9542B1FD80B0B03F16F0003F178
:102B58006E02C300B1E719448DE703F15C0003F18D
:102B68005B02C300A9E741F00103C7E90455C5E9C1
:102B780002006B60695071E779689210012404FAC9
:102B880002F20A437A60A6E7B3F5AA7F06D8CB0B10
:102B980003F1780003F17702C3008EE740F2545244
:102BA800934206D88B0C03F17D0003F17C02C3002D
:102BB80083E74FF47E737E227FE741F001036B6069
:102BC800CCF800104AE700BF3C0400204808002069
:102BD800F80800202DE9F8430746884600F53876BE
:102BE8004FF00009D6E90154013D11D4A389012B06
:102BF80005F1FF3508D9B4F90E300133214603D069
:102C08003846C04749EA00096B1C04F16804EDD155
:102C18003668002EE6D14846BDE8F883704700BF05
:102C2800704700BF704700BF704700BF70B50C46C3
:102C3800B1F90E10002996B015461E4614DB6A46F7
:102C480000F014FC00280FDB019A02F47042A2F590
:102C58000052B2FA82F24FF4806352094FF40060D6
:102C680032602B6016B070BDB4F90C10002311F05F
:102C78008000336004D0402218462A6016B070BD28
:102C88004FF480632B6016B070BD00BF024B014645
:102C9800186800F003B800BF0C0000202DE9F04FC1
:102CA80001F10B06162E83B0044624D8102900F231
:102CB800BA8000F0A3FA102618220220B54F3A4431
:102CC800A2F1080153688B4200F0BA805A68D968AB
:102CD80022F003021A449D68E9608D60516841F052
:102CE80001012046516003F1080500F08DFA2846DD
:102CF80003B0BDE8F08F36F0070600F19480B142CA
:102D080000F2918000F07AFAB6F5FC7FC0F09A8163
:102D1800730A00F08F80042B00F26F81B30903F16E
:102D2800390003F1380CC3009A4F3B44A3F108055E
:102D38005B689D4206D10CE0002980F22781DB68A0
:102D48009D4206D05A6822F00302911B0F29F3DD39
:102D580060463D69DFF840C265457CD06A6822F06C
:102D68000302931B0F2B00F37B81002BC7E904CCD4
:102D780080F26C81B2F5007F80F01A81D3087968FF
:102D880001334FEA521E012202FA0EF20A4357F8A3
:102D980033E0C5F808E007EBC3010839E9607A6059
:102DA80047F83350CEF80C508310012199409142D6
:102DB80057D8114206D120F003004900114200F112
:102DC8000400FAD007EBC0094D468646D5F80C80BA
:102DD800454508D11DE1002B80F22481D8F80C80EC
:102DE800454500F01681D8F8042022F00302931B11
:102DF8000F2BF0DD2046D8E9025408EB060146F017
:102E08000106C8F80460EC60A56043F00104C7E956
:102E18000411C1E902CC4C6048F8023000F0F4F922
:102E280008F1080502E00C2323600025284603B0BA
:102E3800BDE8F08F4FF4007340204FF03F0C73E76C
:102E4800D3689A4208BF02307FF440AF3D69DFF88B
:102E580048C1654582D17A68831001219940914221
:102E6800A7D9BD686B6823F003094E4503D8A9EBC1
:102E780006030F2B7ADCDFF824B1494BDBF800207E
:102E88001B680132334405EB090A00F0338103F56E
:102E980080530F3323F47F6828F00F0841462046FB
:102EA80000F0B8F9411C024600F0F380824500F2B8
:102EB800EE803C4B196841441960084600F04E8189
:102EC800DBF80010019301311BBFA2EB0A0A504442
:102ED800CBF80020186012F0070B00F01781CBF137
:102EE80008010A44CBF5805190440831A1EB080150
:102EF800C1F30B0A51462046009200F08BF9421CA0
:102F0800DDE9002300F04F81801A00EB0A081968F8
:102F1800BA6048F001005144BD425060196000F0A9
:102F28002981B9F10F0F40F227816868A9F10C0CCB
:102F38002CF0070C00F0010040EA0C0068604FF02C
:102F4800050E05EB0C00BCF10F0FC0E901EE00F215
:102F5800328150681546144B1A688A4238BF196086
:102F6800124B1A688A4238BF196094E0AA1943F0D4
:102F7800010346F001066E602046BA60536000F017
:102F880043F90835284603B0BDE8F08FD9681A44DC
:102F9800A1E600BF3C0400204404002044080020AF
:102FA800F8080020C8080020F0080020F4080020D5
:102FB800B2F5206F4FEA522363D3142B00F2B78087
:102FC80003F15C01C9005B3307EB010E7958AEF1E0
:102FD800080E8E4500F091804B6823F0030393425E
:102FE80002D989688E45F7D1D1F80CE07A68C5E92D
:102FF800021ECEF80850CD60D6E6142B59D9542BB2
:1030080000F29D80330B03F16F0003F16E0CC300D7
:103018008AE60EF1010E1EF0030F05F108057FF494
:10302800D5AE51E0424445465368D8F80C1043F0F9
:103038000103536055F8083F2046D9608B6000F0C3
:10304800E3F8F3E6F00806F1080237E62A442046DA
:10305800536843F001035360083500F0D5F8E5E6FE
:10306800A919204646F0010643F001046E60C7E93D
:103078000411C1E902CC4C60AB5000F0C5F808352A
:10308800D4E6930903F13901C90038339CE7BD42FE
:103098005FD0BD68686820F003084645A8EB0603C2
:1030A80002D80F2B3FF762AF204600F0ADF800259D
:1030B800BCE603F15C0003F15B0CC30034E659F88D
:1030C80008394B4540F0968010F0030F00F1FF30AF
:1030D800F5D17B6823EA01037B60490099423FF6FA
:1030E800C0AE19B9BDE649000EF1040E1942FAD076
:1030F800704667E603F11008D0E69A104FF0010811
:103108007B6808FA02F21A437A6070E702EB08015A
:103118004942C1F30B0A51462046009200F07AF862
:10312800431CDDE900237FF4EFAEDA46EFE6542BCB
:1031380025D8130B03F16F01C9006E3344E7B3F5CB
:10314800AA7F25D8F30B03F1780003F1770CC300AD
:10315800EAE5294B186840441860B1E6CAF30B0C3D
:10316800BCF1000F7FF4ACAEBD68C84448F0010064
:103178006860F0E61546EEE60123536094E7B3F580
:10318800AA7F23D8D30B03F17801C90077331BE753
:1031980040F25452934223D8B30C03F17D0003F15B
:1031A8007C0CC300C0E5ABF1080BD844A8EB0208BF
:1031B8004FF0000AABE605F1080120460093FFF73F
:1031C80003FCBD68009B68681968C4E640F2545166
:1031D8008B420BD8930C03F17D01C9007C33F3E6D5
:1031E8004FF47E737F204FF07E0C9DE54FF47E7187
:1031F8007E23E9E67B6870E7C80800200148FFF7EE
:1032080011BD00BFBC0800200148FFF70DBD00BF7D
:10321800BC08002038B5074D0022044608462A603D
:10322800FDF7F4FA431C00D038BD2B68002BFBD007
:10323800236038BDFC08002010B50C46B1F90E100B
:1032480000F040F9002803DB236D0344236510BD1B
:10325800A38923F48053A38110BD00BF2DE9F04159
:103268000C46B1F90C101F46CB05054616460BD483
:1032780021F48051A1813B46B4F90E10324628460C
:10328800BDE8F04100F01EB8B4F90E100223002288
:1032980000F002F9B4F90C10EAE700BF10B50C46CB
:1032A800B1F90E1000F0F8F8A389421C0EBF23F400
:1032B800805343F480532065A38110BDB1F90E10EB
:1032C80000F05CB838B50C46084D844611462046D7
:1032D8001A4600232B606446FDF7CEF9431C00D044
:1032E80038BD2B68002BFBD0236038BDFC080020BC
:1032F8002DE9F047DFF87CA00646DAF8000098468A
:103308000F469146FFF78EFC1B4B1B68D3F84841CC
:1033180024B365681F2D26DC5EB96B1C0235DAF80C
:103328000000636044F82570FFF77EFC0020BDE8CC
:10333800F08704EB85010123C1F88890D4F888212F
:10334800AB401A43022EC4F88821C1F80881E4D1A1
:10335800D4F88C211343C4F88C31DEE703F5A67446
:10336800C3F84841D5E7DAF80000FFF75DFC4FF0F5
:10337800FF30DCE7380400202835000838B5074D51
:103388000022044608462A60FDF719FA431C00D0BB
:1033980038BD2B68002BFBD0236038BDFC0800200B
:1033A80070B500294BD006460C4610B1836B002B34
:1033B80048D0636ED80734D5B4F90C30002B3ED012
:1033C80021463046FFF744F9E36A054633B1E1691F
:1033D800304698470028B8BF4FF0FF35A3891A0632
:1033E8003BD4216B41B104F14003994202D03046ED
:1033F800FFF7EAFA00232363616C21B13046FFF737
:10340800E3FA00236364FFF76DFA636E0022DB07BB
:10341800A28127D5A06DFFF703FCFFF769FA2846BC
:1034280070BDA3899905CBD4A06DFFF7FBFBB4F958
:103438000C30002BC4D1656E15F0010508D00025AD
:10344800284670BDFFF7C8F9636ED807B4D4E8E71B
:10345800A06DFFF7E9FB284670BD21693046FFF7EC
:10346800B3FABEE7A06DFFF7DFFBD3E770B50C46F4
:10347800084D03460026204611461C462E60FDF7DF
:10348800A9F9431C00D070BD2B68002BFBD023602A
:1034980070BD00BFFC08002038B50C46084D8446B6
:1034A800114620461A4600232B606446FDF7A1F911
:1034B800431C00D038BD2B68002BFBD0236038BDDF
:1034C800FC08002038B50C46084D844611462046B5
:1034D8001A4600232B606446FDF7FAF8431C00D017
:1034E80038BD2B68002BFBD0236038BDFC080020BA
:1034F800F8B500BFF8BC08BC9E467047F8B500BFD9
:08350800F8BC08BC9E467047A8
:103510000000000000000000010203040607080983
:0C35200000000000010203041000002065
:08352C00CCCCFF7F0100000080
:0835340039260008AD01000872
:04353C0089010008F9
:103540000024F40010000000010000001000002022
:1035500000000000FC02002064030020CC030020D7
:10356000000000000000000000000000000000005B
:10357000000000000000000000000000000000004B
:10358000000000000000000000000000000000003B
:10359000000000000000000000000000000000002B
:1035A000000000000000000000000000000000001B
:1035B000000000000000000000000000000000000B
:1035C00000000000000000000000000000000000FB
:1035D00000000000000000000000000000000000EB
:1035E00000000000000000000000000000000000DB
:1035F00000000000000000000100000000000000CA
:103600000E33CDAB34126DE6ECDE05000B0000008E
:1036100000000000000000000000000000000000AA
:10362000000000000000000000000000000000009A
:10363000000000000000000000000000000000008A
:10364000000000000000000000000000000000007A
:103970000000000000000000B80800200000000067
:10398000000000003C0400203C040020440400200F
:10399000440400204C0400204C0400205404002067
:1039A000540400205C0400205C0400206404002017
:1039B000640400206C0400206C04002074040020C7
:1039C000740400207C0400207C0400208404002077
:1039D000840400208C0400208C0400209404002027
:1039E000940400209C0400209C040020A4040020D7
:1039F000A4040020AC040020AC040020B404002087
:103A0000B4040020BC040020BC040020C404002036
:103A1000C4040020CC040020CC040020D4040020E6
:103A2000D4040020DC040020DC040020E404002096
:103A3000E4040020EC040020EC040020F404002046
:103A4000F4040020FC040020FC04002004050020F5
:103A5000040500200C0500200C05002014050020A2
:103A6000140500201C0500201C0500202405002052
:103A7000240500202C0500202C0500203405002002
:103A8000340500203C0500203C05002044050020B2
:103A9000440500204C0500204C0500205405002062
:103AA000540500205C0500205C0500206405002012
:103AB000640500206C0500206C05002074050020C2
:103AC000740500207C0500207C0500208405002072
:103AD000840500208C0500208C0500209405002022
:103AE000940500209C0500209C050020A4050020D2
:103AF000A4050020AC050020AC050020B405002082
:103B0000B4050020BC050020BC050020C405002031
:103B1000C4050020CC050020CC050020D4050020E1
:103B2000D4050020DC050020DC050020E405002091
:103B3000E4050020EC050020EC050020F405002041
:103B4000F4050020FC050020FC05002004060020F0
:103B5000040600200C0600200C060020140600209D
:103B6000140600201C0600201C060020240600204D
:103B7000240600202C0600202C06002034060020FD
:103B8000340600203C0600203C06002044060020AD
:103B9000440600204C0600204C060020540600205D
:103BA000540600205C0600205C060020640600200D
:103BB000640600206C0600206C06002074060020BD
:103BC000740600207C0600207C060020840600206D
:103BD000840600208C0600208C060020940600201D
:103BE000940600209C0600209C060020A4060020CD
:103BF000A4060020AC060020AC060020B40600207D
:103C0000B4060020BC060020BC060020C40600202C
:103C1000C4060020CC060020CC060020D4060020DC
:103C2000D4060020DC060020DC060020E40600208C
:103C3000E4060020EC060020EC060020F40600203C
:103C4000F4060020FC060020FC06002004070020EB
:103C5000040700200C0700200C0700201407002098
:103C6000140700201C0700201C0700202407002048
:103C7000240700202C0700202C07002034070020F8
:103C8000340700203C0700203C07002044070020A8
:103C9000440700204C0700204C0700205407002058
:103CA000540700205C0700205C0700206407002008
:103CB000640700206C0700206C07002074070020B8
:103CC000740700207C0700207C0700208407002068
:103CD000840700208C0700208C0700209407002018
:103CE000940700209C0700209C070020A4070020C8
:103CF000A4070020AC070020AC070020B407002078
:103D0000B4070020BC070020BC070020C407002027
:103D1000C4070020CC070020CC070020D4070020D7
:103D2000D4070020DC070020DC070020E407002087
:103D3000E4070020EC070020EC070020F407002037
:103D4000F4070020FC070020FC07002004080020E6
:103D5000040800200C0800200C0800201408002093
:103D6000140800201C0800201C0800202408002043
:103D7000240800202C0800202C08002034080020F3
:0C3D800034080020FFFFFFFF00000200DD
:040000050800097175
:00000001FF
