:020000040800F2
:1000000000000220D1060008750600087B060008E3
:1000100081060008870600088D0600080000000021
:10002000000000000000000000000000930600082F
:100030009F06000800000000AB060008B706000895
:1000400021070008210700082107000821070008F0
:1000500021070008210700082107000821070008E0
:1000600021070008210700082107000821070008D0
:1000700021070008210700082107000821070008C0
:1000800021070008210700082107000821070008B0
:1000900021070008210700082107000821070008A0
:1000A0002107000821070008210700082107000890
:1000B0002107000821070008210700082107000880
:1000C0002107000821070008210700082107000870
:1000D0002107000821070008210700082107000860
:1000E0002107000821070008210700082107000850
:1000F0002107000821070008210700082107000840
:10010000210700082107000821070008210700082F
:10011000210700082107000821070008210700081F
:10012000210700082107000821070008210700080F
:1001300021070008210700082107000821070008FF
:1001400021070008210700082107000821070008EF
:1001500021070008210700082107000821070008DF
:1001600021070008210700082107000821070008CF
:1001700021070008210700082107000800000000EF
:08018000210700082107000817
:1001880010B5054C237833B9044B13B10448AFF3C9
:1001980000800123237010BD3C04002000000000F3
:1001A800DC13000808B5034B1BB103490348AFF340
:1001B800008008BD0000000040040020DC13000897
:1001C80053B94AB9002908BF00281CBF4FF0FF31B6
:1001D8004FF0FF3000F074B9ADF1080C6DE904CEB2
:1001E80000F006F8DDF804E0DDE9022304B070470A
:1001F8002DE9F047089E0D4604468846002B4DD150
:100208008A42944668D9B2FA82F252B101FA02F3EC
:10021800C2F1200120FA01F10CFA02FC41EA0308BC
:1002280094404FEA1C45210CB8FBF5FE1FFA8CF7E9
:1002380005FB1E8341EA03430EFB07F199420BD9E4
:100248001CEB03030EF1FF3080F01E81994240F24F
:100258001B81AEF1020E63445B1AA4B2B3FBF5F046
:1002680005FB103344EA034400FB07F7A7420AD909
:100278001CEB040400F1FF3380F00881A74240F230
:10028800058164440238E41B40EA0E4000211EB197
:10029800D4400023C6E90043BDE8F0878B4208D963
:1002A800002E00F0EE800021C6E900050846BDE8F2
:1002B800F087B3FA83F100294AD1AB4202D38242D4
:1002C80000F2F980841A65EB030301209846002E9A
:1002D800E2D0C6E90048DFE702B9FFDEB2FA82F2EF
:1002E800002A40F09180A1EB0C054FEA1C471FFA49
:1002F8008CFE0121B5FBF7F307FB1350250C45EAEB
:1003080000450EFB03F0A84208D91CEB050503F1D4
:10031800FF3802D2A84200F2CB8043462D1AA4B27D
:10032800B5FBF7F007FB105544EA05440EFB00FE49
:10033800A64508D91CEB040400F1FF3502D2A645F6
:1003480000F2BB802846A4EB0E0440EA03409EE777
:10035800C1F120078B4022FA07FC4CEA030C20FA73
:1003680007F405FA01F31C43FD404FEA1C4900FA63
:1003780001F3B5FBF9F8200C1FFA8CFE09FB1855A0
:1003880040EA054508FB0EF0A84202FA01F20BD933
:100398001CEB050508F1FF3A80F08880A84240F27E
:1003A8008580A8F1020865442D1AA4B2B5FBF9F0BE
:1003B80009FB105544EA054500FB0EFEAE4508D979
:1003C8001CEB050500F1FF346CD2AE456AD9023842
:1003D800654440EA0840A0FB0294A5EB0E05A5423F
:1003E800C846A64656D353D05EB1B3EB080265EBB8
:1003F8000E0505FA07F722FA01F3CD401F43C6E9B7
:1004080000750021BDE8F087C2F1200320FA03F14E
:100418000CFA02FC25FA03F395400D434FEA1C47FA
:100428001FFA8CFEB3FBF7F107FB11302B0C43EAE4
:10043800004301FB0EF0984204FA02F408D91CEBC1
:10044800030301F1FF382FD298422DD902396344B2
:100458001B1AADB2B3FBF7F007FB103345EA0345AF
:1004680000FB0EF3AB4208D91CEB050500F1FF3881
:1004780016D2AB4214D902386544ED1A40EA01415C
:1004880038E73146304607E78646E5E61846FAE695
:100498004B45A9D2B9EB020864EB0C0E0138A3E76F
:1004A8004046EAE7204694E74146D1E7D0467BE755
:1004B800023B654432E7084609E76444023842E7EC
:1004C800704700BF80B500AF1D4B1B681C4A43F046
:1004D800200313601B4B1B681A4A23F44023136044
:1004E800184B1B68174A43F480231360164B1B688C
:1004F800154A23F400731360134B134A1B681360E7
:10050800124B1B68114A23F4402313600F4B0F4A08
:100518001B6813600E4B1B680D4A23F440231360BD
:100528000B4B0B4A1B6813600A4B1B68094A23F4E0
:100538000073136000F0F2F800F00EF8FEE700BF59
:1005480030380240001402400414024008140240EB
:100558000C1402401414024080B594B000AF07F1A7
:10056800200330220021184600F072FE07F10C0328
:1005780000221A605A609A60DA601A610023BB6030
:10058800224B1B6C214A43F0805313641F4B1B6C96
:1005980003F08053BB60BB6800237B601C4B1B6867
:1005A8001B4A43F480431360194B1B6803F48043D0
:1005B8007B607B6802233B620123FB6210233B6361
:1005C8000023BB6307F12003184600F0F9F903463E
:1005D800002B01D000F01EF80F23FB6000233B61C5
:1005E80000237B610023BB610023FB6107F10C033F
:1005F8000021184600F05CFC0346002B01D000F0F7
:1006080009F800BF5037BD4680BD00BF0038024022
:100618000070004080B400AF72B600BFFEE7000073
:1006280080B483B000AF00237B600F4B5B6C0E4A35
:1006380043F4804353640C4B5B6C03F480437B604E
:100648007B6800233B60084B1B6C074A43F08053D0
:100658001364054B1B6C03F080533B603B6800BF81
:100668000C37BD4680BC70470038024080B400AFEC
:10067800FEE780B400AFFEE780B400AFFEE780B4C9
:1006880000AFFEE780B400AFFEE780B400AF00BF64
:10069800BD4680BC704780B400AF00BFBD4680BC7B
:1006A800704780B400AF00BFBD4680BC704780B5BE
:1006B80000AF00F085F800BF80BD80B400AF00BF78
:1006C800BD4680BC70470000DFF834D00D480E49A5
:1006D8000E4A002302E0D458C4500433C4188C4294
:1006E800F9D30B4A0B4C002301E013600432A242F9
:1006F800FBD3FFF7E2FF00F087FDFFF7E3FE70474B
:1007080000000220000000203C0400201C14000807
:100718003C04002060040020FEE7000080B500AF24
:100728000E4B1B680D4A43F4007313600B4B1B6898
:100738000A4A43F480631360084B1B68074A43F472
:1007480080731360032000F007F90F2000F008F809
:10075800FFF766FF0023184680BD00BF003C02403B
:1007680080B582B000AF7860124B1A68124B1B78C4
:1007780019464FF47A73B3FBF1F3B2FBF3F318465F
:1007880000F011F90346002B01D001230EE07B682D
:100798000F2B0AD8002279684FF0FF3000F0E7F8F5
:1007A800064A7B681360002300E0012318460837D7
:1007B800BD4680BD00000020080000200400002085
:1007C80080B400AF054B1B781A46054B1B681344D1
:1007D800034A136000BFBD4680BC70470800002074
:1007E8005804002080B400AF024B1B681846BD4671
:1007F80080BC70475804002080B485B000AF786092
:100808007B6803F00703FB600C4BDB68BB60BA68CE
:100818004FF6FF031340BB60FB681A02BB68134323
:1008280043F0BF6343F40033BB60044ABB68D36042
:1008380000BF1437BD4680BC704700BF00ED00E024
:1008480080B400AF044BDB681B0A03F007031846AB
:10085800BD4680BC704700BF00ED00E080B483B0A7
:1008680000AF03463960FB7197F90730002B0ADBAC
:100878003B68DAB20C4997F907301201D2B20B443F
:1008880083F800230AE03B68DAB20849FB7903F0F1
:100898000F03043B1201D2B20B441A7600BF0C3787
:1008A800BD4680BC704700BF00E100E000ED00E0FD
:1008B80080B489B000AFF860B9607A60FB6803F073
:1008C8000703FB61FB69C3F10703042B28BF04235B
:1008D800BB61FB690433062B02D9FB69033B00E0CB
:1008E80000237B614FF0FF32BB6902FA03F3DA435E
:1008F800BB681A407B699A404FF0FF317B6901FA67
:1009080003F3D9437B680B40134318462437BD468D
:1009180080BC704780B582B000AF78607B68013BCF
:10092800B3F1807F01D301230FE00A4A7B68013BC2
:1009380053600F214FF0FF30FFF790FF054B002267
:100948009A60044B07221A60002318460837BD46F0
:1009580080BD00BF10E000E080B582B000AF7860D5
:100968007868FFF749FF00BF0837BD4680BD80B5EE
:1009780086B000AF0346B9607A60FB7300237B61E1
:10098800FFF75EFF78617A68B9687869FFF790FFCA
:10099800024697F90F3011461846FFF75FFF00BF70
:1009A8001837BD4680BD80B582B000AF78607868E2
:1009B800FFF7B0FF034618460837BD4680BD000064
:1009C80080B586B000AF78607B68002B01D1012329
:1009D80067E27B681B6803F00103002B75D0884B26
:1009E8009B6803F00C03042B0CD0854B9B6803F029
:1009F8000C03082B12D1824B5B6803F48003B3F518
:100A0800800F0BD17E4B1B6803F40033002B5BD0A7
:100A18007B685B68002B57D1012342E27B685B68E7
:100A2800B3F5803F06D1764B1B68754A43F4803393
:100A380013601DE07B685B68B3F5A02F0CD1704B89
:100A48001B686F4A43F4802313606D4B1B686C4A24
:100A580043F4803313600BE0694B1B68684A23F446
:100A680080331360664B1B68654A23F48023136048
:100A78007B685B68002B13D0FFF7B4FE386108E091
:100A8800FFF7B0FE02463B69D31A642B01D9032352
:100A980007E25B4B1B6803F40033002BF0D014E033
:100AA800FFF7A0FE386108E0FFF79CFE02463B69AD
:100AB800D31A642B01D90323F3E1514B1B6803F4C8
:100AC8000033002BF0D100E000BF7B681B6803F007
:100AD8000203002B63D04A4B9B6803F00C03002BE6
:100AE8000BD0474B9B6803F00C03082B1CD1444BDD
:100AF8005B6803F48003002B16D1414B1B6803F09D
:100B08000203002B05D07B68DB68012B01D0012391
:100B1800C7E13B4B1B6823F0F8027B681B69DB00CD
:100B2800374913430B603AE07B68DB68002B20D021
:100B3800344B01221A60FFF755FE386108E0FFF7D1
:100B480051FE02463B69D31A022B01D90323A8E1BF
:100B58002B4B1B6803F00203002BF0D0284B1B68BB
:100B680023F0F8027B681B69DB00254913430B60FF
:100B780015E0244B00221A60FFF734FE386108E0C4
:100B8800FFF730FE02463B69D31A022B01D9032333
:100B980087E11B4B1B6803F00203002BF0D17B6835
:100BA8001B6803F00803002B36D07B685B69002BB9
:100BB80016D0154B01221A60FFF714FE386108E0C1
:100BC800FFF710FE02463B69D31A022B01D9032313
:100BD80067E10B4B5B6F03F00203002BF0D01BE0C7
:100BE800094B00221A60FFF7FDFD38610EE0FFF7A0
:100BF800F9FD02463B69D31A022B07D9032350E1BA
:100C08000038024000004742800E4742884B5B6F25
:100C180003F00203002BEAD17B681B6803F004038E
:100C2800002B00F097800023FB75814B1B6C03F0B1
:100C38008053002B0FD10023BB607D4B1B6C7C4A7B
:100C480043F0805313647A4B1B6C03F08053BB60F2
:100C5800BB680123FB75774B1B6803F48073002B7B
:100C680018D1744B1B68734A43F480731360FFF701
:100C7800B9FD386108E0FFF7B5FD02463B69D31AB4
:100C8800022B01D903230CE16A4B1B6803F4807320
:100C9800002BF0D07B689B68012B06D1644B1B6F3F
:100CA800634A43F0010313671CE07B689B68052BCC
:100CB8000CD15F4B1B6F5E4A43F0040313675C4B18
:100CC8001B6F5B4A43F0010313670BE0584B1B6F24
:100CD800574A23F001031367554B1B6F544A23F0FF
:100CE800040313677B689B68002B15D0FFF77AFD18
:100CF80038610AE0FFF776FD02463B69D31A41F2F4
:100D08008832934201D90323CBE0494B1B6F03F090
:100D18000203002BEED014E0FFF764FD38610AE00F
:100D2800FFF760FD02463B69D31A41F288329342CD
:100D380001D90323B5E03E4B1B6F03F00203002BE0
:100D4800EED1FB7D012B05D1394B1B6C384A23F0C2
:100D5800805313647B689B69002B00F0A180344B9F
:100D68009B6803F00C03082B5CD07B689B69022B03
:100D780041D1314B00221A60FFF734FD386108E099
:100D8800FFF730FD02463B69D31A022B01D9032332
:100D980087E0274B1B6803F00073002BF0D17B68BA
:100DA800DA697B681B6A1A437B685B6A9B011A4392
:100DB8007B689B6A5B08013B1B041A437B68DB6A00
:100DC8001B061B4913434B601B4B01221A60FFF79C
:100DD80009FD386108E0FFF705FD02463B69D31AB3
:100DE800022B01D903235CE0114B1B6803F000734D
:100DF800002BF0D054E0104B00221A60FFF7F2FCF1
:100E0800386108E0FFF7EEFC02463B69D31A022B73
:100E180001D9032345E0064B1B6803F00073002B40
:100E2800F0D13DE07B689B69012B07D1012338E0B5
:100E38000038024000700040600047421B4B5B686E
:100E4800FB607B689B69012B28D0FB6803F4800258
:100E58007B68DB699A4221D1FB6803F03F027B681B
:100E68001B6A9A421AD1FA6847F6C07313407A6827
:100E7800526A9201934211D1FB6803F440327B68B5
:100E88009B6A5B08013B1B049A4207D1FB6803F08D
:100E980070627B68DB6A1B069A4201D0012300E07E
:100EA800002318461837BD4680BD00BF00380240F1
:100EB80080B584B000AF786039607B68002B01D1C1
:100EC8000123CCE0684B1B6803F007033A689A4299
:100ED8000CD9654B3A68D2B21A70634B1B6803F0A1
:100EE80007033A689A4201D00123B8E07B681B687F
:100EF80003F00203002B20D07B681B6803F0040377
:100F0800002B05D0594B9B68584A43F4E053936033
:100F18007B681B6803F00803002B05D0534B9B68C4
:100F2800524A43F460439360504B9B6823F0F002AD
:100F38007B689B684D4913438B607B681B6803F093
:100F48000103002B44D07B685B68012B07D1474B1A
:100F58001B6803F40033002B19D101237FE07B6861
:100F68005B68022B03D07B685B68032B07D13F4B80
:100F78001B6803F00073002B09D101236FE03B4B82
:100F88001B6803F00203002B01D1012367E0374BF4
:100F98009B6823F003027B685B68344913438B60CA
:100FA800FFF720FCF8600AE0FFF71CFC0246FB682C
:100FB800D31A41F28832934201D903234FE02B4BD5
:100FC8009B6803F00C027B685B689B009A42EBD13C
:100FD800254B1B6803F007033A689A420CD2224B50
:100FE8003A68D2B21A70204B1B6803F007033A68BC
:100FF8009A4201D0012332E07B681B6803F00403A6
:10100800002B08D0194B9B6823F4E0527B68DB68FF
:10101800164913438B607B681B6803F00803002B99
:1010280009D0124B9B6823F460427B681B69DB0084
:101038000E4913438B6000F021F802460B4B9B6866
:101048001B0903F00F030A49CB5C22FA03F3094A90
:101058001360094B1B681846FFF782FB00231846EC
:101068001037BD4680BD00BF003C0240003802403A
:10107800F413000800000020040000202DE9B04F00
:1010880090B000AF00237B630023FB6300233B6326
:101098000023BB63594B9B6803F00C03082B0DD04E
:1010A800082B00F2A280002B02D0042B03D09CE076
:1010B800534BBB639CE0534BBB6399E04F4B5B685E
:1010C80003F03F037B634D4B5B6803F48003002B05
:1010D80027D04A4B5B689B0900223B627A623B6AD5
:1010E800C3F308000021474B03FB01F2002300FB78
:1010F80003F31344434AA0FB0221F962BA62FA6A75
:101108001344FB627B6B0022BB61FA61D7E90623BB
:10111800D7E90A01FFF754F802460B461346FB636A
:1011280055E0364B5B689B0900223B617A613B695D
:10113800C3F3080A4FF0000B52465B464FF000001D
:101148004FF00001590141EAD261500102460B46B5
:10115800B2EB0A0863EB0B094FF000024FF00003F3
:101168004FEA891343EA98634FEA8812B2EB0804FE
:1011780063EB09054FF000024FF00003EB0043EA70
:101188005473E20014461D4614EB0A033B6045EB1A
:101198000B037B604FF000024FF00003D7E90045D6
:1011A80029468B0220462946044643EA94530146C1
:1011B8008A02104619467B6B0022BB60FA60D7E9A9
:1011C8000223FEF7FDFF02460B461346FB630B4B5B
:1011D8005B681B0C03F0030301335B003B63FA6B92
:1011E8003B6BB2FBF3F3BB6302E0054BBB6300BF91
:1011F800BB6B18464037BD46BDE8B08F003802408B
:101208000024F40040787D0170B50D4E0D4D761B1D
:10121800B61006D0002455F8043B01349847A6427E
:10122800F9D1094E094D761B00F0D4F8B61006D056
:10123800002455F8043B01349847A642F9D170BD03
:1012480010140008101400081814000810140008DE
:10125800830730B548D0541E002A3FD0CAB203468F
:1012680001E0013C3AD303F8012B9D07F9D1032C87
:101278002DD9CDB245EA05250F2C45EA054536D9C5
:10128800A4F1100222F00F0C03F1200EE6444FEAFD
:10129800121C03F1100242E9045542E902551032CA
:1012A8007245F8D10CF1010214F00C0F03EB021295
:1012B80004F00F0C13D0ACF1040323F00303043340
:1012C800134442F8045B9342FBD10CF003042CB1A5
:1012D800CAB21C4403F8012B9C42FBD130BD6446C2
:1012E8001346002CF4D1F9E703461446BFE71A4623
:1012F800A446E0E7024B13B1024800F005B8704776
:10130800000000001D130008002301461A46184675
:1013180000F01AB838B5084B084D5B1B9C1007D075
:10132800043B1D44013C55F804399847002CF9D179
:10133800BDE8384000F054B81C1400081814000820
:10134800704700BF704700BF2DE9F047DFF87CA069
:101358000646DAF8000098460F469146FFF7F0FF78
:101368001B4B1B68D3F8484124B365681F2D26DC46
:101378005EB96B1C0235DAF80000636044F825702A
:10138800FFF7E0FF0020BDE8F08704EB85010123AB
:10139800C1F88890D4F88821AB401A43022EC4F8CB
:1013A8008821C1F80881E4D1D4F88C211343C4F80A
:1013B8008C31DEE703F5A674C3F84841D5E7DAF8BF
:1013C8000000FFF7BFFF4FF0FF30DCE738040020D4
:1013D80004140008F8B500BFF8BC08BC9E46704766
:0C13E800F8B500BFF8BC08BC9E4670477A
:1013F40000000000000000000102030406070809C1
:0414040010000020B4
:08140800F0EDFF7F0100000080
:08141000FD120008AD01000807
:04141800890100083E
:10141C000024F40010000000010000000000000097
:10142C0000000000FC02002064030020CC0300201C
:10143C0000000000000000000000000000000000A0
:10144C000000000000000000000000000000000090
:10145C000000000000000000000000000000000080
:10146C000000000000000000000000000000000070
:10147C000000000000000000000000000000000060
:10148C000000000000000000000000000000000050
:10149C000000000000000000000000000000000040
:1014AC000000000000000000000000000000000030
:1014BC000000000000000000000000000000000020
:1014CC00000000000000000001000000000000000F
:1014DC000E33CDAB34126DE6ECDE05000B000000D4
:1014EC0000000000000000000000000000000000F0
:1014FC0000000000000000000000000000000000E0
:10150C0000000000000000000000000000000000CF
:10151C0000000000000000000000000000000000BF
:0C184C0000000000000000005C04002010
:04000005080006D118
:00000001FF
